{
  "contractName": "DMV",
  "abi": [
    {
      "constant": true,
      "inputs": [],
      "name": "owner",
      "outputs": [
        {
          "name": "",
          "type": "address"
        }
      ],
      "payable": false,
      "stateMutability": "view",
      "type": "function"
    },
    {
      "inputs": [],
      "payable": false,
      "stateMutability": "nonpayable",
      "type": "constructor"
    },
    {
      "constant": false,
      "inputs": [
        {
          "name": "_driverLicense",
          "type": "string"
        },
        {
          "name": "_userInfo",
          "type": "string"
        },
        {
          "name": "_loginHashCheck",
          "type": "string"
        },
        {
          "name": "_testGrades",
          "type": "string"
        }
      ],
      "name": "createAccount",
      "outputs": [],
      "payable": false,
      "stateMutability": "nonpayable",
      "type": "function"
    },
    {
      "constant": true,
      "inputs": [],
      "name": "getAccount",
      "outputs": [
        {
          "name": "",
          "type": "string"
        },
        {
          "name": "",
          "type": "string"
        },
        {
          "name": "",
          "type": "string"
        },
        {
          "name": "",
          "type": "string"
        }
      ],
      "payable": false,
      "stateMutability": "view",
      "type": "function"
    },
    {
      "constant": true,
      "inputs": [],
      "name": "getNumberofAccounts",
      "outputs": [
        {
          "name": "",
          "type": "uint8"
        }
      ],
      "payable": false,
      "stateMutability": "view",
      "type": "function"
    },
    {
      "constant": false,
      "inputs": [
        {
          "name": "_userInfo",
          "type": "string"
        },
        {
          "name": "_testGrades",
          "type": "string"
        },
        {
          "name": "_realID",
          "type": "string"
        }
      ],
      "name": "updateAccount",
      "outputs": [],
      "payable": false,
      "stateMutability": "nonpayable",
      "type": "function"
    },
    {
      "constant": false,
      "inputs": [
        {
          "name": "_driverLicense",
          "type": "string"
        },
        {
          "name": "_loginHashCheck",
          "type": "string"
        },
        {
          "name": "_currentaddress",
          "type": "address"
        }
      ],
      "name": "Login",
      "outputs": [],
      "payable": false,
      "stateMutability": "nonpayable",
      "type": "function"
    },
    {
      "constant": true,
      "inputs": [],
      "name": "getLogin",
      "outputs": [
        {
          "name": "",
          "type": "string"
        }
      ],
      "payable": false,
      "stateMutability": "view",
      "type": "function"
    },
    {
      "constant": false,
      "inputs": [],
      "name": "Logout",
      "outputs": [],
      "payable": false,
      "stateMutability": "nonpayable",
      "type": "function"
    },
    {
      "constant": true,
      "inputs": [
        {
          "name": "a",
          "type": "string"
        },
        {
          "name": "b",
          "type": "string"
        }
      ],
      "name": "compareStrings",
      "outputs": [
        {
          "name": "",
          "type": "bool"
        }
      ],
      "payable": false,
      "stateMutability": "view",
      "type": "function"
    },
    {
      "constant": false,
      "inputs": [
        {
          "name": "_requestInfo",
          "type": "string"
        }
      ],
      "name": "createVitalRecordRequest",
      "outputs": [],
      "payable": false,
      "stateMutability": "nonpayable",
      "type": "function"
    },
    {
      "constant": true,
      "inputs": [
        {
          "name": "_index",
          "type": "uint8"
        }
      ],
      "name": "getRecordRequestIndex",
      "outputs": [
        {
          "name": "",
          "type": "string"
        }
      ],
      "payable": false,
      "stateMutability": "view",
      "type": "function"
    },
    {
      "constant": true,
      "inputs": [],
      "name": "getRecordRequestCount",
      "outputs": [
        {
          "name": "",
          "type": "uint8"
        }
      ],
      "payable": false,
      "stateMutability": "view",
      "type": "function"
    },
    {
      "constant": false,
      "inputs": [
        {
          "name": "_soldVehicleInfo",
          "type": "string"
        },
        {
          "name": "_soldVehicleCarTitles",
          "type": "string"
        },
        {
          "name": "_fullCarTitleInformation",
          "type": "string"
        }
      ],
      "name": "createSoldVehicleReceipt",
      "outputs": [],
      "payable": false,
      "stateMutability": "nonpayable",
      "type": "function"
    },
    {
      "constant": true,
      "inputs": [
        {
          "name": "_index",
          "type": "uint8"
        }
      ],
      "name": "getSoldVehicleReceiptIndex",
      "outputs": [
        {
          "name": "",
          "type": "string"
        }
      ],
      "payable": false,
      "stateMutability": "view",
      "type": "function"
    },
    {
      "constant": true,
      "inputs": [],
      "name": "getSoldVehicleReceiptCountAndCarTitles",
      "outputs": [
        {
          "name": "",
          "type": "uint8"
        },
        {
          "name": "",
          "type": "string"
        }
      ],
      "payable": false,
      "stateMutability": "view",
      "type": "function"
    },
    {
      "constant": false,
      "inputs": [
        {
          "name": "_reportVehicleInfo",
          "type": "string"
        },
        {
          "name": "_soldVehicleCarTitles",
          "type": "string"
        }
      ],
      "name": "createReportedVehicle",
      "outputs": [],
      "payable": false,
      "stateMutability": "nonpayable",
      "type": "function"
    },
    {
      "constant": true,
      "inputs": [
        {
          "name": "_index",
          "type": "uint8"
        }
      ],
      "name": "getReportedVehicleIndex",
      "outputs": [
        {
          "name": "",
          "type": "string"
        }
      ],
      "payable": false,
      "stateMutability": "view",
      "type": "function"
    },
    {
      "constant": true,
      "inputs": [],
      "name": "getReportedVehicleCount",
      "outputs": [
        {
          "name": "",
          "type": "uint8"
        }
      ],
      "payable": false,
      "stateMutability": "view",
      "type": "function"
    },
    {
      "constant": false,
      "inputs": [
        {
          "name": "_fullCarTitleInformation",
          "type": "string"
        }
      ],
      "name": "createCarTitleInformation",
      "outputs": [],
      "payable": false,
      "stateMutability": "nonpayable",
      "type": "function"
    },
    {
      "constant": false,
      "inputs": [
        {
          "name": "_fullCarTitleInformation",
          "type": "string"
        }
      ],
      "name": "updateCarTitleInformation",
      "outputs": [],
      "payable": false,
      "stateMutability": "nonpayable",
      "type": "function"
    },
    {
      "constant": true,
      "inputs": [],
      "name": "getCarTitleInformation",
      "outputs": [
        {
          "name": "",
          "type": "string"
        },
        {
          "name": "",
          "type": "uint8"
        }
      ],
      "payable": false,
      "stateMutability": "view",
      "type": "function"
    }
  ],
  "bytecode": "0x608060405234801561001057600080fd5b50336000806101000a81548173ffffffffffffffffffffffffffffffffffffffff021916908373ffffffffffffffffffffffffffffffffffffffff160217905550613672806100606000396000f30060806040526004361061011d576000357c0100000000000000000000000000000000000000000000000000000000900463ffffffff16806304d31572146101225780631624d320146102175780631c1f24ed146102c057806322b86e881461032957806323cb0a9f146103b957806326f506d514610456578063454bad03146104875780634ae06098146104b85780636fa953da146105f357806371ccb5f9146106c2578063806c2a591461072b5780638da5cb5b146107d45780639420c34c1461082b578063bed34bba146108c8578063c2d661ed1461098f578063cb183de914610a3e578063d2ecf4f814610ae7578063db613e8114610afe578063e0f84b0314610cd2578063e2c03a1414610d3b578063ead2657414610d6c575b600080fd5b34801561012e57600080fd5b50610215600480360381019080803590602001908201803590602001908080601f0160208091040260200160405190810160405280939291908181526020018383808284378201915050505050509192919290803590602001908201803590602001908080601f0160208091040260200160405190810160405280939291908181526020018383808284378201915050505050509192919290803590602001908201803590602001908080601f0160208091040260200160405190810160405280939291908181526020018383808284378201915050505050509192919290505050610e61565b005b34801561022357600080fd5b50610245600480360381019080803560ff169060200190929190505050611114565b6040518080602001828103825283818151815260200191508051906020019080838360005b8381101561028557808201518184015260208101905061026a565b50505050905090810190601f1680156102b25780820380516001836020036101000a031916815260200191505b509250505060405180910390f35b3480156102cc57600080fd5b50610327600480360381019080803590602001908201803590602001908080601f01602080910402602001604051908101604052809392919081815260200183838082843782019150505050505091929192905050506112ff565b005b34801561033557600080fd5b5061033e611447565b6040518080602001828103825283818151815260200191508051906020019080838360005b8381101561037e578082015181840152602081019050610363565b50505050905090810190601f1680156103ab5780820380516001836020036101000a031916815260200191505b509250505060405180910390f35b3480156103c557600080fd5b506103ce611529565b60405180806020018360ff1660ff168152602001828103825284818151815260200191508051906020019080838360005b8381101561041a5780820151818401526020810190506103ff565b50505050905090810190601f1680156104475780820380516001836020036101000a031916815260200191505b50935050505060405180910390f35b34801561046257600080fd5b5061046b611711565b604051808260ff1660ff16815260200191505060405180910390f35b34801561049357600080fd5b5061049c611856565b604051808260ff1660ff16815260200191505060405180910390f35b3480156104c457600080fd5b506105f1600480360381019080803590602001908201803590602001908080601f0160208091040260200160405190810160405280939291908181526020018383808284378201915050505050509192919290803590602001908201803590602001908080601f0160208091040260200160405190810160405280939291908181526020018383808284378201915050505050509192919290803590602001908201803590602001908080601f0160208091040260200160405190810160405280939291908181526020018383808284378201915050505050509192919290803590602001908201803590602001908080601f016020809104026020016040519081016040528093929190818152602001838380828437820191505050505050919291929050505061186c565b005b3480156105ff57600080fd5b506106c0600480360381019080803590602001908201803590602001908080601f0160208091040260200160405190810160405280939291908181526020018383808284378201915050505050509192919290803590602001908201803590602001908080601f0160208091040260200160405190810160405280939291908181526020018383808284378201915050505050509192919290803573ffffffffffffffffffffffffffffffffffffffff169060200190929190505050611bfe565b005b3480156106ce57600080fd5b50610729600480360381019080803590602001908201803590602001908080601f0160208091040260200160405190810160405280939291908181526020018383808284378201915050505050509192919290505050611e04565b005b34801561073757600080fd5b50610759600480360381019080803560ff169060200190929190505050611f7a565b6040518080602001828103825283818151815260200191508051906020019080838360005b8381101561079957808201518184015260208101905061077e565b50505050905090810190601f1680156107c65780820380516001836020036101000a031916815260200191505b509250505060405180910390f35b3480156107e057600080fd5b506107e9612165565b604051808273ffffffffffffffffffffffffffffffffffffffff1673ffffffffffffffffffffffffffffffffffffffff16815260200191505060405180910390f35b34801561083757600080fd5b5061084061218a565b604051808360ff1660ff16815260200180602001828103825283818151815260200191508051906020019080838360005b8381101561088c578082015181840152602081019050610871565b50505050905090810190601f1680156108b95780820380516001836020036101000a031916815260200191505b50935050505060405180910390f35b3480156108d457600080fd5b50610975600480360381019080803590602001908201803590602001908080601f0160208091040260200160405190810160405280939291908181526020018383808284378201915050505050509192919290803590602001908201803590602001908080601f01602080910402602001604051908101604052809392919081815260200183838082843782019150505050505091929192905050506123dd565b604051808215151515815260200191505060405180910390f35b34801561099b57600080fd5b50610a3c600480360381019080803590602001908201803590602001908080601f0160208091040260200160405190810160405280939291908181526020018383808284378201915050505050509192919290803590602001908201803590602001908080601f01602080910402602001604051908101604052809392919081815260200183838082843782019150505050505091929192905050506125a3565b005b348015610a4a57600080fd5b50610a6c600480360381019080803560ff169060200190929190505050612831565b6040518080602001828103825283818151815260200191508051906020019080838360005b83811015610aac578082015181840152602081019050610a91565b50505050905090810190601f168015610ad95780820380516001836020036101000a031916815260200191505b509250505060405180910390f35b348015610af357600080fd5b50610afc612a1c565b005b348015610b0a57600080fd5b50610b13612a85565b6040518080602001806020018060200180602001858103855289818151815260200191508051906020019080838360005b83811015610b5f578082015181840152602081019050610b44565b50505050905090810190601f168015610b8c5780820380516001836020036101000a031916815260200191505b50858103845288818151815260200191508051906020019080838360005b83811015610bc5578082015181840152602081019050610baa565b50505050905090810190601f168015610bf25780820380516001836020036101000a031916815260200191505b50858103835287818151815260200191508051906020019080838360005b83811015610c2b578082015181840152602081019050610c10565b50505050905090810190601f168015610c585780820380516001836020036101000a031916815260200191505b50858103825286818151815260200191508051906020019080838360005b83811015610c91578082015181840152602081019050610c76565b50505050905090810190601f168015610cbe5780820380516001836020036101000a031916815260200191505b509850505050505050505060405180910390f35b348015610cde57600080fd5b50610d39600480360381019080803590602001908201803590602001908080601f0160208091040260200160405190810160405280939291908181526020018383808284378201915050505050509192919290505050612f40565b005b348015610d4757600080fd5b50610d5061314a565b604051808260ff1660ff16815260200191505060405180910390f35b348015610d7857600080fd5b50610e5f600480360381019080803590602001908201803590602001908080601f0160208091040260200160405190810160405280939291908181526020018383808284378201915050505050509192919290803590602001908201803590602001908080601f0160208091040260200160405190810160405280939291908181526020018383808284378201915050505050509192919290803590602001908201803590602001908080601f016020809104026020016040519081016040528093929190818152602001838380828437820191505050505050919291929050505061328f565b005b6060610e6b611447565b9050610e878160206040519081016040528060008152506123dd565b151515610f22576040517f08c379a00000000000000000000000000000000000000000000000000000000081526004018080602001828103825260388152602001807f4163636f756e7420666f722063757272656e742061646472657373206c6f676781526020017f656420696e20636f756c64206e6f7420626520666f756e64000000000000000081525060400191505060405180910390fd5b610f3c8460206040519081016040528060008152506123dd565b1515610fc657836002826040518082805190602001908083835b602083101515610f7b5780518252602082019150602081019050602083039250610f56565b6001836020036101000a03801982511681845116808217855250505050505090500191505090815260200160405180910390206000019080519060200190610fc49291906135a1565b505b610fe08360206040519081016040528060008152506123dd565b151561106a57826002826040518082805190602001908083835b60208310151561101f5780518252602082019150602081019050602083039250610ffa565b6001836020036101000a038019825116818451168082178552505050505050905001915050908152602001604051809103902060020190805190602001906110689291906135a1565b505b6110848260206040519081016040528060008152506123dd565b151561110e57816002826040518082805190602001908083835b6020831015156110c3578051825260208201915060208101905060208303925061109e565b6001836020036101000a0380198251168184511680821785525050505050509050019150509081526020016040518091039020600301908051906020019061110c9291906135a1565b505b50505050565b60608061111f611447565b905061113b8160206040519081016040528060008152506123dd565b1515156111d6576040517f08c379a00000000000000000000000000000000000000000000000000000000081526004018080602001828103825260388152602001807f4163636f756e7420666f722063757272656e742061646472657373206c6f676781526020017f656420696e20636f756c64206e6f7420626520666f756e64000000000000000081525060400191505060405180910390fd5b6003816040518082805190602001908083835b60208310151561120e57805182526020820191506020810190506020830392506111e9565b6001836020036101000a03801982511681845116808217855250505050505090500191505090815260200160405180910390206000018360ff1681548110151561125457fe5b906000526020600020018054600181600116156101000203166002900480601f0160208091040260200160405190810160405280929190818152602001828054600181600116156101000203166002900480156112f25780601f106112c7576101008083540402835291602001916112f2565b820191906000526020600020905b8154815290600101906020018083116112d557829003601f168201915b5050505050915050919050565b6060611309611447565b90506113258160206040519081016040528060008152506123dd565b1515156113c0576040517f08c379a00000000000000000000000000000000000000000000000000000000081526004018080602001828103825260388152602001807f4163636f756e7420666f722063757272656e742061646472657373206c6f676781526020017f656420696e20636f756c64206e6f7420626520666f756e64000000000000000081525060400191505060405180910390fd5b816006826040518082805190602001908083835b6020831015156113f957805182526020820191506020810190506020830392506113d4565b6001836020036101000a038019825116818451168082178552505050505050905001915050908152602001604051809103902060000190805190602001906114429291906135a1565b505050565b6060600160003373ffffffffffffffffffffffffffffffffffffffff1673ffffffffffffffffffffffffffffffffffffffff1681526020019081526020016000206000018054600181600116156101000203166002900480601f01602080910402602001604051908101604052809291908181526020018280546001816001161561010002031660029004801561151f5780601f106114f45761010080835404028352916020019161151f565b820191906000526020600020905b81548152906001019060200180831161150257829003601f168201915b5050505050905090565b606060006060611537611447565b90506115538160206040519081016040528060008152506123dd565b1515156115ee576040517f08c379a00000000000000000000000000000000000000000000000000000000081526004018080602001828103825260388152602001807f4163636f756e7420666f722063757272656e742061646472657373206c6f676781526020017f656420696e20636f756c64206e6f7420626520666f756e64000000000000000081525060400191505060405180910390fd5b6006816040518082805190602001908083835b6020831015156116265780518252602082019150602081019050602083039250611601565b6001836020036101000a0380198251168184511680821785525050505050509050019150509081526020016040518091039020600001600060159054906101000a900460ff16818054600181600116156101000203166002900480601f0160208091040260200160405190810160405280929190818152602001828054600181600116156101000203166002900480156117015780601f106116d657610100808354040283529160200191611701565b820191906000526020600020905b8154815290600101906020018083116116e457829003601f168201915b5050505050915092509250509091565b6000606061171d611447565b90506117398160206040519081016040528060008152506123dd565b1515156117d4576040517f08c379a00000000000000000000000000000000000000000000000000000000081526004018080602001828103825260388152602001807f4163636f756e7420666f722063757272656e742061646472657373206c6f676781526020017f656420696e20636f756c64206e6f7420626520666f756e64000000000000000081525060400191505060405180910390fd5b6003816040518082805190602001908083835b60208310151561180c57805182526020820191506020810190506020830392506117e7565b6001836020036101000a038019825116818451168082178552505050505050905001915050908152602001604051809103902060010160009054906101000a900460ff1691505090565b60008060149054906101000a900460ff16905090565b600015156002856040518082805190602001908083835b6020831015156118a85780518252602082019150602081019050602083039250611883565b6001836020036101000a038019825116818451168082178552505050505050905001915050908152602001604051809103902060040160009054906101000a900460ff161515141515611963576040517f08c379a00000000000000000000000000000000000000000000000000000000081526004018080602001828103825260168152602001807f4163636f756e7420616c7265616479206578697374730000000000000000000081525060200191505060405180910390fd5b826002856040518082805190602001908083835b60208310151561199c5780518252602082019150602081019050602083039250611977565b6001836020036101000a038019825116818451168082178552505050505050905001915050908152602001604051809103902060000190805190602001906119e59291906135a1565b50806002856040518082805190602001908083835b602083101515611a1f57805182526020820191506020810190506020830392506119fa565b6001836020036101000a03801982511681845116808217855250505050505090500191505090815260200160405180910390206002019080519060200190611a689291906135a1565b50816002856040518082805190602001908083835b602083101515611aa25780518252602082019150602081019050602083039250611a7d565b6001836020036101000a03801982511681845116808217855250505050505090500191505090815260200160405180910390206001019080519060200190611aeb9291906135a1565b5060016002856040518082805190602001908083835b602083101515611b265780518252602082019150602081019050602083039250611b01565b6001836020036101000a038019825116818451168082178552505050505050905001915050908152602001604051809103902060040160006101000a81548160ff02191690831515021790555083600160003373ffffffffffffffffffffffffffffffffffffffff1673ffffffffffffffffffffffffffffffffffffffff1681526020019081526020016000206000019080519060200190611bc99291906135a1565b506001600060148282829054906101000a900460ff160192506101000a81548160ff021916908360ff16021790555050505050565b611d0e6002846040518082805190602001908083835b602083101515611c395780518252602082019150602081019050602083039250611c14565b6001836020036101000a03801982511681845116808217855250505050505090500191505090815260200160405180910390206001018054600181600116156101000203166002900480601f016020809104026020016040519081016040528092919081815260200182805460018160011615610100020316600290048015611d035780601f10611cd857610100808354040283529160200191611d03565b820191906000526020600020905b815481529060010190602001808311611ce657829003601f168201915b5050505050836123dd565b1515611da8576040517f08c379a00000000000000000000000000000000000000000000000000000000081526004018080602001828103825260298152602001807f4c6f67696e20496e666f20697320696e636f72726563742e20506c656173652081526020017f54727920616761696e000000000000000000000000000000000000000000000081525060400191505060405180910390fd5b82600160003373ffffffffffffffffffffffffffffffffffffffff1673ffffffffffffffffffffffffffffffffffffffff1681526020019081526020016000206000019080519060200190611dfe9291906135a1565b50505050565b6060611e0e611447565b9050611e2a8160206040519081016040528060008152506123dd565b151515611ec5576040517f08c379a00000000000000000000000000000000000000000000000000000000081526004018080602001828103825260388152602001807f4163636f756e7420666f722063757272656e742061646472657373206c6f676781526020017f656420696e20636f756c64206e6f7420626520666f756e64000000000000000081525060400191505060405180910390fd5b816006826040518082805190602001908083835b602083101515611efe5780518252602082019150602081019050602083039250611ed9565b6001836020036101000a03801982511681845116808217855250505050505090500191505090815260200160405180910390206000019080519060200190611f479291906135a1565b506001600060158282829054906101000a900460ff160192506101000a81548160ff021916908360ff1602179055505050565b606080611f85611447565b9050611fa18160206040519081016040528060008152506123dd565b15151561203c576040517f08c379a00000000000000000000000000000000000000000000000000000000081526004018080602001828103825260388152602001807f4163636f756e7420666f722063757272656e742061646472657373206c6f676781526020017f656420696e20636f756c64206e6f7420626520666f756e64000000000000000081525060400191505060405180910390fd5b6004816040518082805190602001908083835b602083101515612074578051825260208201915060208101905060208303925061204f565b6001836020036101000a03801982511681845116808217855250505050505090500191505090815260200160405180910390206000018360ff168154811015156120ba57fe5b906000526020600020018054600181600116156101000203166002900480601f0160208091040260200160405190810160405280929190818152602001828054600181600116156101000203166002900480156121585780601f1061212d57610100808354040283529160200191612158565b820191906000526020600020905b81548152906001019060200180831161213b57829003601f168201915b5050505050915050919050565b6000809054906101000a900473ffffffffffffffffffffffffffffffffffffffff1681565b6000606080612197611447565b90506121b38160206040519081016040528060008152506123dd565b15151561224e576040517f08c379a00000000000000000000000000000000000000000000000000000000081526004018080602001828103825260388152602001807f4163636f756e7420666f722063757272656e742061646472657373206c6f676781526020017f656420696e20636f756c64206e6f7420626520666f756e64000000000000000081525060400191505060405180910390fd5b6004816040518082805190602001908083835b6020831015156122865780518252602082019150602081019050602083039250612261565b6001836020036101000a038019825116818451168082178552505050505050905001915050908152602001604051809103902060010160009054906101000a900460ff166004826040518082805190602001908083835b60208310151561230257805182526020820191506020810190506020830392506122dd565b6001836020036101000a0380198251168184511680821785525050505050509050019150509081526020016040518091039020600201808054600181600116156101000203166002900480601f0160208091040260200160405190810160405280929190818152602001828054600181600116156101000203166002900480156123cd5780601f106123a2576101008083540402835291602001916123cd565b820191906000526020600020905b8154815290600101906020018083116123b057829003601f168201915b5050505050905092509250509091565b6000815183511415156123f3576000905061259d565b816040516020018082805190602001908083835b60208310151561242c5780518252602082019150602081019050602083039250612407565b6001836020036101000a0380198251168184511680821785525050505050509050019150506040516020818303038152906040526040518082805190602001908083835b6020831015156124955780518252602082019150602081019050602083039250612470565b6001836020036101000a038019825116818451168082178552505050505050905001915050604051809103902060001916836040516020018082805190602001908083835b6020831015156124ff57805182526020820191506020810190506020830392506124da565b6001836020036101000a0380198251168184511680821785525050505050509050019150506040516020818303038152906040526040518082805190602001908083835b6020831015156125685780518252602082019150602081019050602083039250612543565b6001836020036101000a0380198251168184511680821785525050505050509050019150506040518091039020600019161490505b92915050565b60606125ad611447565b90506125c98160206040519081016040528060008152506123dd565b151515612664576040517f08c379a00000000000000000000000000000000000000000000000000000000081526004018080602001828103825260388152602001807f4163636f756e7420666f722063757272656e742061646472657373206c6f676781526020017f656420696e20636f756c64206e6f7420626520666f756e64000000000000000081525060400191505060405180910390fd5b6005816040518082805190602001908083835b60208310151561269c5780518252602082019150602081019050602083039250612677565b6001836020036101000a038019825116818451168082178552505050505050905001915050908152602001604051809103902060000183908060018154018082558091505090600182039060005260206000200160009091929091909150908051906020019061270d9291906135a1565b505060016005826040518082805190602001908083835b6020831015156127495780518252602082019150602081019050602083039250612724565b6001836020036101000a038019825116818451168082178552505050505050905001915050908152602001604051809103902060010160008282829054906101000a900460ff160192506101000a81548160ff021916908360ff160217905550816004826040518082805190602001908083835b6020831015156127e257805182526020820191506020810190506020830392506127bd565b6001836020036101000a0380198251168184511680821785525050505050509050019150509081526020016040518091039020600201908051906020019061282b9291906135a1565b50505050565b60608061283c611447565b90506128588160206040519081016040528060008152506123dd565b1515156128f3576040517f08c379a00000000000000000000000000000000000000000000000000000000081526004018080602001828103825260388152602001807f4163636f756e7420666f722063757272656e742061646472657373206c6f676781526020017f656420696e20636f756c64206e6f7420626520666f756e64000000000000000081525060400191505060405180910390fd5b6005816040518082805190602001908083835b60208310151561292b5780518252602082019150602081019050602083039250612906565b6001836020036101000a03801982511681845116808217855250505050505090500191505090815260200160405180910390206000018360ff1681548110151561297157fe5b906000526020600020018054600181600116156101000203166002900480601f016020809104026020016040519081016040528092919081815260200182805460018160011615610100020316600290048015612a0f5780601f106129e457610100808354040283529160200191612a0f565b820191906000526020600020905b8154815290600101906020018083116129f257829003601f168201915b5050505050915050919050565b6020604051908101604052806000815250600160003373ffffffffffffffffffffffffffffffffffffffff1673ffffffffffffffffffffffffffffffffffffffff1681526020019081526020016000206000019080519060200190612a829291906135a1565b50565b6060806060806060612a95611447565b9050612ab18160206040519081016040528060008152506123dd565b1515612eec576002816040518082805190602001908083835b602083101515612aef5780518252602082019150602081019050602083039250612aca565b6001836020036101000a03801982511681845116808217855250505050505090500191505090815260200160405180910390206000016002826040518082805190602001908083835b602083101515612b5d5780518252602082019150602081019050602083039250612b38565b6001836020036101000a03801982511681845116808217855250505050505090500191505090815260200160405180910390206002016002836040518082805190602001908083835b602083101515612bcb5780518252602082019150602081019050602083039250612ba6565b6001836020036101000a03801982511681845116808217855250505050505090500191505090815260200160405180910390206003016002846040518082805190602001908083835b602083101515612c395780518252602082019150602081019050602083039250612c14565b6001836020036101000a0380198251168184511680821785525050505050509050019150509081526020016040518091039020600101838054600181600116156101000203166002900480601f016020809104026020016040519081016040528092919081815260200182805460018160011615610100020316600290048015612d045780601f10612cd957610100808354040283529160200191612d04565b820191906000526020600020905b815481529060010190602001808311612ce757829003601f168201915b50505050509350828054600181600116156101000203166002900480601f016020809104026020016040519081016040528092919081815260200182805460018160011615610100020316600290048015612da05780601f10612d7557610100808354040283529160200191612da0565b820191906000526020600020905b815481529060010190602001808311612d8357829003601f168201915b50505050509250818054600181600116156101000203166002900480601f016020809104026020016040519081016040528092919081815260200182805460018160011615610100020316600290048015612e3c5780601f10612e1157610100808354040283529160200191612e3c565b820191906000526020600020905b815481529060010190602001808311612e1f57829003601f168201915b50505050509150808054600181600116156101000203166002900480601f016020809104026020016040519081016040528092919081815260200182805460018160011615610100020316600290048015612ed85780601f10612ead57610100808354040283529160200191612ed8565b820191906000526020600020905b815481529060010190602001808311612ebb57829003601f168201915b505050505090509450945094509450612f39565b602060405190810160405280600081525060206040519081016040528060008152506020604051908101604052806000815250602060405190810160405280600081525094509450945094505b5090919293565b6060612f4a611447565b9050612f668160206040519081016040528060008152506123dd565b151515613001576040517f08c379a00000000000000000000000000000000000000000000000000000000081526004018080602001828103825260388152602001807f4163636f756e7420666f722063757272656e742061646472657373206c6f676781526020017f656420696e20636f756c64206e6f7420626520666f756e64000000000000000081525060400191505060405180910390fd5b6003816040518082805190602001908083835b6020831015156130395780518252602082019150602081019050602083039250613014565b6001836020036101000a03801982511681845116808217855250505050505090500191505090815260200160405180910390206000018290806001815401808255809150509060018203906000526020600020016000909192909190915090805190602001906130aa9291906135a1565b505060016003826040518082805190602001908083835b6020831015156130e657805182526020820191506020810190506020830392506130c1565b6001836020036101000a038019825116818451168082178552505050505050905001915050908152602001604051809103902060010160008282829054906101000a900460ff160192506101000a81548160ff021916908360ff1602179055505050565b60006060613156611447565b90506131728160206040519081016040528060008152506123dd565b15151561320d576040517f08c379a00000000000000000000000000000000000000000000000000000000081526004018080602001828103825260388152602001807f4163636f756e7420666f722063757272656e742061646472657373206c6f676781526020017f656420696e20636f756c64206e6f7420626520666f756e64000000000000000081525060400191505060405180910390fd5b6005816040518082805190602001908083835b6020831015156132455780518252602082019150602081019050602083039250613220565b6001836020036101000a038019825116818451168082178552505050505050905001915050908152602001604051809103902060010160009054906101000a900460ff1691505090565b6060613299611447565b90506132b58160206040519081016040528060008152506123dd565b151515613350576040517f08c379a00000000000000000000000000000000000000000000000000000000081526004018080602001828103825260388152602001807f4163636f756e7420666f722063757272656e742061646472657373206c6f676781526020017f656420696e20636f756c64206e6f7420626520666f756e64000000000000000081525060400191505060405180910390fd5b6004816040518082805190602001908083835b6020831015156133885780518252602082019150602081019050602083039250613363565b6001836020036101000a03801982511681845116808217855250505050505090500191505090815260200160405180910390206000018490806001815401808255809150509060018203906000526020600020016000909192909190915090805190602001906133f99291906135a1565b505060016004826040518082805190602001908083835b6020831015156134355780518252602082019150602081019050602083039250613410565b6001836020036101000a038019825116818451168082178552505050505050905001915050908152602001604051809103902060010160008282829054906101000a900460ff160192506101000a81548160ff021916908360ff160217905550826004826040518082805190602001908083835b6020831015156134ce57805182526020820191506020810190506020830392506134a9565b6001836020036101000a038019825116818451168082178552505050505050905001915050908152602001604051809103902060020190805190602001906135179291906135a1565b50816006826040518082805190602001908083835b602083101515613551578051825260208201915060208101905060208303925061352c565b6001836020036101000a0380198251168184511680821785525050505050509050019150509081526020016040518091039020600001908051906020019061359a9291906135a1565b5050505050565b828054600181600116156101000203166002900490600052602060002090601f016020900481019282601f106135e257805160ff1916838001178555613610565b82800160010185558215613610579182015b8281111561360f5782518255916020019190600101906135f4565b5b50905061361d9190613621565b5090565b61364391905b8082111561363f576000816000905550600101613627565b5090565b905600a165627a7a72305820eafecc2ce7bb1d51a6582298254b184a71d84be702904cadbefd21a9e9d8d7890029",
  "source": "pragma solidity ^0.4.24;\r\n\r\ncontract DMV{\r\n\r\n\t//Store current user address when page was loaded\r\n    address public owner;\r\n    \r\n    constructor() public{\r\n        owner = msg.sender;\r\n    }\r\n    \r\n\t//Check if current address from METAMASK is the original owner address\r\n    modifier onlyBy(address _account)\r\n    {\r\n        require(msg.sender == _account, \"Sender not authorized.\");\r\n        // Do not forget the \"_;\"! It will\r\n        // be replaced by the actual function\r\n        // body when the modifier is used.\r\n        _;\r\n    }\r\n    \r\n\t//Defined Structs\r\n    struct AccountStruct{\r\n       string userInfo;\r\n       string loginHashCheck;\r\n\t   string testGrades;\r\n\t   string realID;\r\n\t   bool isCreated;\r\n    }\r\n\t\r\n\tuint8 numberofAccounts;\r\n\tuint8 carTitleCount;\r\n    \r\n    struct LoginStruct{\r\n       string driverLicense;\r\n    }\r\n\t\r\n\tstruct VitalRecordRequestStruct{\r\n       string[] requestInfo;\r\n\t   uint8 requestCount;\r\n    }\r\n\t\r\n\tstruct SoldVehicleReceiptStruct{\r\n       string[] soldVehicleInfo;\r\n\t   uint8 soldVehicleCount;\r\n\t   string soldVehicleCarTitles;\r\n    }\r\n\t\r\n\tstruct ReportVehicleStruct{\r\n       string[] reportVehicleInfo;\r\n\t   uint8 reportVehicleCount;\r\n    }\r\n\t\r\n\tstruct CarTitleStruct{\r\n       string fullCarTitleInformation;\r\n    }\r\n\t\r\n    //Defined mappings\r\n    mapping(address => LoginStruct) activeLogins;\r\n    mapping(string => AccountStruct) allAccounts;\r\n\tmapping(string => VitalRecordRequestStruct) allVitalRecordRequests;\r\n\tmapping(string => SoldVehicleReceiptStruct) allSoldVehicleReceipts;\r\n\tmapping(string => ReportVehicleStruct) allReportedVehicles;\r\n\tmapping(string => CarTitleStruct) allCarTitles;\r\n\t\r\n    //Create an account for current user address with their driver license as a key to lookup their information\r\n    function createAccount(string memory _driverLicense,string memory _userInfo,string memory _loginHashCheck, string memory _testGrades) public{\r\n\t   \r\n\t    require(\r\n            allAccounts[_driverLicense].isCreated == false,\r\n            \"Account already exists\"\r\n        );\r\n\t\t\r\n    \tallAccounts[_driverLicense].userInfo = _userInfo;\r\n    \tallAccounts[_driverLicense].testGrades = _testGrades;\r\n    \tallAccounts[_driverLicense].loginHashCheck = _loginHashCheck;\r\n\t\tallAccounts[_driverLicense].isCreated = true;\r\n\t\tactiveLogins[msg.sender].driverLicense = _driverLicense;\r\n\t\tnumberofAccounts+=1;\r\n    }\r\n    \r\n\t//Get user with current address's license account information by getting their logged in license number\r\n    function getAccount() public view returns(string memory,string memory,string memory,string memory)  {\r\n        string memory license = getLogin();\r\n        if(!compareStrings(license, \"\")){\r\n            return (allAccounts[license].userInfo,allAccounts[license].testGrades,allAccounts[license].realID,allAccounts[license].loginHashCheck);\r\n        }\r\n        else{\r\n            return (\"\",\"\",\"\",\"\");\r\n        }\r\n    }\r\n\t\r\n\t//Get Number of accounts\r\n    function getNumberofAccounts() public view returns(uint8)  {\r\n        return numberofAccounts;\r\n    }\r\n\t\r\n\t//Update current address's license account information by getting their logged in license number\r\n\tfunction updateAccount(string memory _userInfo,string memory _testGrades, string memory _realID) public{\r\n\t   \r\n\t    string memory license = getLogin();\r\n\t   \r\n\t    require(\r\n            !compareStrings(license, \"\"),\r\n            \"Account for current address logged in could not be found\"\r\n        );\r\n\t\t\r\n\t\tif(!compareStrings( _userInfo, \"\")){\r\n\t\t\tallAccounts[license].userInfo = _userInfo;\r\n\t\t}\r\n\t\tif(!compareStrings(_testGrades, \"\")){\r\n\t\t\tallAccounts[license].testGrades = _testGrades;\r\n\t\t}\r\n\t\tif(!compareStrings(_realID, \"\")){\r\n\t\t\tallAccounts[license].realID = _realID;\r\n\t\t}\r\n    }\r\n\t\r\n\t\r\n    //Verify login credentials and then set logged in driver license as specified driver license \r\n    function Login(string memory _driverLicense, string memory _loginHashCheck, address _currentaddress) public{\r\n\t\trequire(\r\n            compareStrings(allAccounts[_driverLicense].loginHashCheck, _loginHashCheck),\r\n            \"Login Info is incorrect. Please Try again\"\r\n        );\r\n\t\tactiveLogins[msg.sender].driverLicense = _driverLicense;\r\n    }\r\n    \r\n\t//Get logged in driver license. Used in all functions to get current user credentials\r\n    function getLogin() public view returns(string memory){\r\n    \treturn activeLogins[msg.sender].driverLicense;\r\n    }\r\n    //Set logged in driver license to empty string\r\n    function Logout() public{\r\n    \tactiveLogins[msg.sender].driverLicense = \"\";\r\n    }\r\n    \r\n    //Used to compare if string are equal por not\r\n    function compareStrings (string memory a, string memory b) public view returns (bool) {\r\n            if(bytes(a).length != bytes(b).length) {\r\n\t\t\t\treturn false;\r\n\t\t\t} else {\r\n\t\t\t\treturn (keccak256(abi.encodePacked((a))) == keccak256(abi.encodePacked((b))) );\r\n\t\t\t}\r\n\r\n       }\r\n\t  \r\n\t  \r\n\t//Create vital record request with current address's license account information by getting their logged in license number\r\n\tfunction createVitalRecordRequest(string memory _requestInfo) public {\r\n\t\r\n\t\tstring memory license = getLogin();\r\n\t   \r\n\t    require(\r\n            !compareStrings(license, \"\"),\r\n            \"Account for current address logged in could not be found\"\r\n        );\r\n\t\r\n\t\tallVitalRecordRequests[license].requestInfo.push(_requestInfo);\r\n\t\tallVitalRecordRequests[license].requestCount+=1;\r\n\t}\r\n\t\r\n\t//Get vital record request by index with current address's license account information by getting their logged in license number\r\n\tfunction getRecordRequestIndex(uint8 _index) public view returns(string memory)  {\r\n        string memory license = getLogin();\r\n\t\t\r\n\t\trequire(\r\n            !compareStrings(license, \"\"),\r\n            \"Account for current address logged in could not be found\"\r\n        );\r\n\t\t\r\n        return (allVitalRecordRequests[license].requestInfo[_index]);\r\n    }\r\n\t\r\n\t//Get vital record request count with current address's license account information by getting their logged in license number\r\n\tfunction getRecordRequestCount() public view returns(uint8)  {\r\n        string memory license = getLogin();\r\n\t\t\r\n\t\trequire(\r\n            !compareStrings(license, \"\"),\r\n            \"Account for current address logged in could not be found\"\r\n        );\r\n\t\t\r\n        return (allVitalRecordRequests[license].requestCount);\r\n    }\r\n\t\r\n\t//Create sold vehicle receipt with current address's license account information by getting their logged in license number\r\n\tfunction createSoldVehicleReceipt(string memory _soldVehicleInfo, string memory _soldVehicleCarTitles,string memory _fullCarTitleInformation) public {\r\n\t\r\n\t\tstring memory license = getLogin();\r\n\t   \r\n\t    require(\r\n            !compareStrings(license, \"\"),\r\n            \"Account for current address logged in could not be found\"\r\n        );\r\n\t\r\n\t\tallSoldVehicleReceipts[license].soldVehicleInfo.push(_soldVehicleInfo);\r\n\t\tallSoldVehicleReceipts[license].soldVehicleCount+=1;\r\n\t\tallSoldVehicleReceipts[license].soldVehicleCarTitles = _soldVehicleCarTitles;\r\n\t\tallCarTitles[license].fullCarTitleInformation = _fullCarTitleInformation;\r\n\t}\r\n\t\r\n\t//Get sold vehicle receipt with current address's license account information by getting their logged in license number\r\n\tfunction getSoldVehicleReceiptIndex(uint8 _index) public view returns(string memory)  {\r\n        string memory license = getLogin();\r\n\t\trequire(\r\n            !compareStrings(license, \"\"),\r\n            \"Account for current address logged in could not be found\"\r\n        );\r\n        return (allSoldVehicleReceipts[license].soldVehicleInfo[_index]);\r\n    }\r\n\t\r\n\t//Get sold vehicle receipt count with current address's license account information by getting their logged in license number\r\n\tfunction getSoldVehicleReceiptCountAndCarTitles() public view returns(uint8,string memory)  {\r\n        string memory license = getLogin();\r\n\t\trequire(\r\n            !compareStrings(license, \"\"),\r\n            \"Account for current address logged in could not be found\"\r\n        );\r\n        return (allSoldVehicleReceipts[license].soldVehicleCount,allSoldVehicleReceipts[license].soldVehicleCarTitles);\r\n    }\r\n\t\r\n\t//Create reported vehicle with current address's license account information by getting their logged in license number\r\n\tfunction createReportedVehicle(string memory _reportVehicleInfo,string memory _soldVehicleCarTitles) public {\r\n\t\r\n\t\tstring memory license = getLogin();\r\n\t   \r\n\t    require(\r\n            !compareStrings(license, \"\"),\r\n            \"Account for current address logged in could not be found\"\r\n        );\r\n\t\r\n\t\tallReportedVehicles[license].reportVehicleInfo.push(_reportVehicleInfo);\r\n\t\tallReportedVehicles[license].reportVehicleCount+=1;\r\n\t\tallSoldVehicleReceipts[license].soldVehicleCarTitles = _soldVehicleCarTitles;\r\n\t}\r\n\t\r\n\t//Get reported vehicle by index with current address's license account information by getting their logged in license number\r\n\tfunction getReportedVehicleIndex(uint8 _index) public view returns(string memory)  {\r\n        string memory license = getLogin();\r\n\t\t\r\n\t\trequire(\r\n            !compareStrings(license, \"\"),\r\n            \"Account for current address logged in could not be found\"\r\n        );\r\n\t\t\r\n        return allReportedVehicles[license].reportVehicleInfo[_index];\r\n    }\r\n\t\r\n\t//Get reported vehicle count with current address's license account information by getting their logged in license number\r\n\tfunction getReportedVehicleCount() public view returns(uint8)  {\r\n        string memory license = getLogin();\r\n\t\t\r\n\t\trequire(\r\n            !compareStrings(license, \"\"),\r\n            \"Account for current address logged in could not be found\"\r\n        );\r\n\t\t\r\n        return allReportedVehicles[license].reportVehicleCount;\r\n    }\r\n\t\r\n\t//Create car title with current address's license account information by getting their logged in license number\r\n\tfunction createCarTitleInformation(string memory _fullCarTitleInformation) public {\r\n\t\r\n\t\tstring memory license = getLogin();\r\n\t   \r\n\t    require(\r\n            !compareStrings(license, \"\"),\r\n            \"Account for current address logged in could not be found\"\r\n        );\r\n\t\t\r\n\t\tallCarTitles[license].fullCarTitleInformation = _fullCarTitleInformation;\r\n\t\tcarTitleCount += 1;\r\n\t}\r\n\t\r\n\t//Update car title with current address's license account information by getting their logged in license number\r\n\tfunction updateCarTitleInformation(string memory _fullCarTitleInformation) public {\r\n\t\r\n\t\tstring memory license = getLogin();\r\n\t   \r\n\t    require(\r\n            !compareStrings(license, \"\"),\r\n            \"Account for current address logged in could not be found\"\r\n        );\r\n\t\t\r\n\t\tallCarTitles[license].fullCarTitleInformation = _fullCarTitleInformation;\r\n\t}\r\n\t\r\n\t//Get car title with current address's license account information by getting their logged in license number\r\n\tfunction getCarTitleInformation() public view returns(string memory,uint8){\r\n\t\r\n\t\tstring memory license = getLogin();\r\n\t   \r\n\t    require(\r\n            !compareStrings(license, \"\"),\r\n            \"Account for current address logged in could not be found\"\r\n        );\r\n\t\t\r\n\t\treturn (allCarTitles[license].fullCarTitleInformation,carTitleCount);\r\n\t}\r\n\r\n}\r\n",
  "sourcePath": "C:\\Users\\CJ1996\\Documents\\Libraries\\Documents\\Old Dominion University\\Spring 2020\\CS 764\\Project\\contracts\\DMV.sol",
  "compiler": {
    "name": "solc",
    "version": "0.4.24+commit.e67f0147.Emscripten.clang"
  },
  "schemaVersion": "3.0.23",
  "updatedAt": "2020-04-24T05:55:53.061Z",
  "networkType": "ethereum",
  "devdoc": {
    "methods": {}
  },
  "userdoc": {
    "methods": {}
  }
}