{
  "contractName": "DMV",
  "abi": [
    {
      "constant": true,
      "inputs": [],
      "name": "owner",
      "outputs": [
        {
          "name": "",
          "type": "address"
        }
      ],
      "payable": false,
      "stateMutability": "view",
      "type": "function"
    },
    {
      "inputs": [],
      "payable": false,
      "stateMutability": "nonpayable",
      "type": "constructor"
    },
    {
      "constant": false,
      "inputs": [
        {
          "name": "_driverLicense",
          "type": "string"
        },
        {
          "name": "_userInfo",
          "type": "string"
        },
        {
          "name": "_loginHashCheck",
          "type": "string"
        },
        {
          "name": "_testGrades",
          "type": "string"
        }
      ],
      "name": "createAccount",
      "outputs": [],
      "payable": false,
      "stateMutability": "nonpayable",
      "type": "function"
    },
    {
      "constant": true,
      "inputs": [
        {
          "name": "_currentaddress",
          "type": "address"
        }
      ],
      "name": "getAccount",
      "outputs": [
        {
          "name": "",
          "type": "string"
        },
        {
          "name": "",
          "type": "string"
        },
        {
          "name": "",
          "type": "string"
        },
        {
          "name": "",
          "type": "string"
        }
      ],
      "payable": false,
      "stateMutability": "view",
      "type": "function"
    },
    {
      "constant": true,
      "inputs": [],
      "name": "getNumberofAccounts",
      "outputs": [
        {
          "name": "",
          "type": "uint8"
        }
      ],
      "payable": false,
      "stateMutability": "view",
      "type": "function"
    },
    {
      "constant": false,
      "inputs": [
        {
          "name": "_userInfo",
          "type": "string"
        },
        {
          "name": "_testGrades",
          "type": "string"
        },
        {
          "name": "_realID",
          "type": "string"
        }
      ],
      "name": "updateAccount",
      "outputs": [],
      "payable": false,
      "stateMutability": "nonpayable",
      "type": "function"
    },
    {
      "constant": false,
      "inputs": [
        {
          "name": "_driverLicense",
          "type": "string"
        },
        {
          "name": "_loginHashCheck",
          "type": "string"
        }
      ],
      "name": "Login",
      "outputs": [],
      "payable": false,
      "stateMutability": "nonpayable",
      "type": "function"
    },
    {
      "constant": true,
      "inputs": [
        {
          "name": "_currentaddress",
          "type": "address"
        }
      ],
      "name": "getLogin",
      "outputs": [
        {
          "name": "",
          "type": "string"
        }
      ],
      "payable": false,
      "stateMutability": "view",
      "type": "function"
    },
    {
      "constant": false,
      "inputs": [],
      "name": "Logout",
      "outputs": [],
      "payable": false,
      "stateMutability": "nonpayable",
      "type": "function"
    },
    {
      "constant": true,
      "inputs": [
        {
          "name": "a",
          "type": "string"
        },
        {
          "name": "b",
          "type": "string"
        }
      ],
      "name": "compareStrings",
      "outputs": [
        {
          "name": "",
          "type": "bool"
        }
      ],
      "payable": false,
      "stateMutability": "view",
      "type": "function"
    },
    {
      "constant": false,
      "inputs": [
        {
          "name": "_requestInfo",
          "type": "string"
        }
      ],
      "name": "createVitalRecordRequest",
      "outputs": [],
      "payable": false,
      "stateMutability": "nonpayable",
      "type": "function"
    },
    {
      "constant": true,
      "inputs": [
        {
          "name": "_currentaddress",
          "type": "address"
        },
        {
          "name": "_index",
          "type": "uint8"
        }
      ],
      "name": "getRecordRequestIndex",
      "outputs": [
        {
          "name": "",
          "type": "string"
        }
      ],
      "payable": false,
      "stateMutability": "view",
      "type": "function"
    },
    {
      "constant": true,
      "inputs": [
        {
          "name": "_currentaddress",
          "type": "address"
        }
      ],
      "name": "getRecordRequestCount",
      "outputs": [
        {
          "name": "",
          "type": "uint8"
        }
      ],
      "payable": false,
      "stateMutability": "view",
      "type": "function"
    },
    {
      "constant": false,
      "inputs": [
        {
          "name": "_soldVehicleInfo",
          "type": "string"
        },
        {
          "name": "_soldVehicleCarTitles",
          "type": "string"
        },
        {
          "name": "_fullCarTitleInformation",
          "type": "string"
        }
      ],
      "name": "createSoldVehicleReceipt",
      "outputs": [],
      "payable": false,
      "stateMutability": "nonpayable",
      "type": "function"
    },
    {
      "constant": true,
      "inputs": [
        {
          "name": "_currentaddress",
          "type": "address"
        },
        {
          "name": "_index",
          "type": "uint8"
        }
      ],
      "name": "getSoldVehicleReceiptIndex",
      "outputs": [
        {
          "name": "",
          "type": "string"
        }
      ],
      "payable": false,
      "stateMutability": "view",
      "type": "function"
    },
    {
      "constant": true,
      "inputs": [
        {
          "name": "_currentaddress",
          "type": "address"
        }
      ],
      "name": "getSoldVehicleReceiptCountAndCarTitles",
      "outputs": [
        {
          "name": "",
          "type": "uint8"
        },
        {
          "name": "",
          "type": "string"
        }
      ],
      "payable": false,
      "stateMutability": "view",
      "type": "function"
    },
    {
      "constant": false,
      "inputs": [
        {
          "name": "_reportVehicleInfo",
          "type": "string"
        },
        {
          "name": "_soldVehicleCarTitles",
          "type": "string"
        }
      ],
      "name": "createReportedVehicle",
      "outputs": [],
      "payable": false,
      "stateMutability": "nonpayable",
      "type": "function"
    },
    {
      "constant": true,
      "inputs": [
        {
          "name": "_currentaddress",
          "type": "address"
        },
        {
          "name": "_index",
          "type": "uint8"
        }
      ],
      "name": "getReportedVehicleIndex",
      "outputs": [
        {
          "name": "",
          "type": "string"
        }
      ],
      "payable": false,
      "stateMutability": "view",
      "type": "function"
    },
    {
      "constant": true,
      "inputs": [
        {
          "name": "_currentaddress",
          "type": "address"
        }
      ],
      "name": "getReportedVehicleCount",
      "outputs": [
        {
          "name": "",
          "type": "uint8"
        }
      ],
      "payable": false,
      "stateMutability": "view",
      "type": "function"
    },
    {
      "constant": false,
      "inputs": [
        {
          "name": "_fullCarTitleInformation",
          "type": "string"
        }
      ],
      "name": "createCarTitleInformation",
      "outputs": [],
      "payable": false,
      "stateMutability": "nonpayable",
      "type": "function"
    },
    {
      "constant": false,
      "inputs": [
        {
          "name": "_currentaddress",
          "type": "address"
        },
        {
          "name": "_fullCarTitleInformation",
          "type": "string"
        }
      ],
      "name": "updateCarTitleInformation",
      "outputs": [],
      "payable": false,
      "stateMutability": "nonpayable",
      "type": "function"
    },
    {
      "constant": true,
      "inputs": [
        {
          "name": "_currentaddress",
          "type": "address"
        }
      ],
      "name": "getCarTitleInformation",
      "outputs": [
        {
          "name": "",
          "type": "string"
        },
        {
          "name": "",
          "type": "uint8"
        }
      ],
      "payable": false,
      "stateMutability": "view",
      "type": "function"
    }
  ],
  "bytecode": "0x608060405234801561001057600080fd5b50336000806101000a81548173ffffffffffffffffffffffffffffffffffffffff021916908373ffffffffffffffffffffffffffffffffffffffff1602179055506137f4806100606000396000f30060806040526004361061011d576000357c0100000000000000000000000000000000000000000000000000000000900463ffffffff16806304d31572146101225780633afb3ac8146102175780633d50a2b2146102e05780634093ca5c146103a957806340ea104514610472578063454bad03146104cf5780634ae06098146105005780634f017e121461063b578063641edf711461070457806371ccb5f9146107615780638da5cb5b146107ca57806394c4734814610821578063bed34bba146108aa578063c2d661ed14610971578063ccef421814610a20578063d2ecf4f814610acf578063e0f84b0314610ae6578063ead2657414610b4f578063ecee3dc614610c44578063f859fdc114610d0d578063fbcbc0f114610dc9575b600080fd5b34801561012e57600080fd5b50610215600480360381019080803590602001908201803590602001908080601f0160208091040260200160405190810160405280939291908181526020018383808284378201915050505050509192919290803590602001908201803590602001908080601f0160208091040260200160405190810160405280939291908181526020018383808284378201915050505050509192919290803590602001908201803590602001908080601f0160208091040260200160405190810160405280939291908181526020018383808284378201915050505050509192919290505050610fc9565b005b34801561022357600080fd5b50610265600480360381019080803573ffffffffffffffffffffffffffffffffffffffff169060200190929190803560ff16906020019092919050505061127d565b6040518080602001828103825283818151815260200191508051906020019080838360005b838110156102a557808201518184015260208101905061028a565b50505050905090810190601f1680156102d25780820380516001836020036101000a031916815260200191505b509250505060405180910390f35b3480156102ec57600080fd5b5061032e600480360381019080803573ffffffffffffffffffffffffffffffffffffffff169060200190929190803560ff16906020019092919050505061146a565b6040518080602001828103825283818151815260200191508051906020019080838360005b8381101561036e578082015181840152602081019050610353565b50505050905090810190601f16801561039b5780820380516001836020036101000a031916815260200191505b509250505060405180910390f35b3480156103b557600080fd5b506103ea600480360381019080803573ffffffffffffffffffffffffffffffffffffffff169060200190929190505050611657565b604051808360ff1660ff16815260200180602001828103825283818151815260200191508051906020019080838360005b8381101561043657808201518184015260208101905061041b565b50505050905090810190601f1680156104635780820380516001836020036101000a031916815260200191505b50935050505060405180910390f35b34801561047e57600080fd5b506104b3600480360381019080803573ffffffffffffffffffffffffffffffffffffffff1690602001909291905050506118ac565b604051808260ff1660ff16815260200191505060405180910390f35b3480156104db57600080fd5b506104e46119f4565b604051808260ff1660ff16815260200191505060405180910390f35b34801561050c57600080fd5b50610639600480360381019080803590602001908201803590602001908080601f0160208091040260200160405190810160405280939291908181526020018383808284378201915050505050509192919290803590602001908201803590602001908080601f0160208091040260200160405190810160405280939291908181526020018383808284378201915050505050509192919290803590602001908201803590602001908080601f0160208091040260200160405190810160405280939291908181526020018383808284378201915050505050509192919290803590602001908201803590602001908080601f0160208091040260200160405190810160405280939291908181526020018383808284378201915050505050509192919290505050611a0a565b005b34801561064757600080fd5b50610689600480360381019080803573ffffffffffffffffffffffffffffffffffffffff169060200190929190803560ff169060200190929190505050611d9c565b6040518080602001828103825283818151815260200191508051906020019080838360005b838110156106c95780820151818401526020810190506106ae565b50505050905090810190601f1680156106f65780820380516001836020036101000a031916815260200191505b509250505060405180910390f35b34801561071057600080fd5b50610745600480360381019080803573ffffffffffffffffffffffffffffffffffffffff169060200190929190505050611f89565b604051808260ff1660ff16815260200191505060405180910390f35b34801561076d57600080fd5b506107c8600480360381019080803590602001908201803590602001908080601f01602080910402602001604051908101604052809392919081815260200183838082843782019150505050505091929192905050506120d1565b005b3480156107d657600080fd5b506107df612248565b604051808273ffffffffffffffffffffffffffffffffffffffff1673ffffffffffffffffffffffffffffffffffffffff16815260200191505060405180910390f35b34801561082d57600080fd5b506108a8600480360381019080803573ffffffffffffffffffffffffffffffffffffffff169060200190929190803590602001908201803590602001908080601f016020809104026020016040519081016040528093929190818152602001838380828437820191505050505050919291929050505061226d565b005b3480156108b657600080fd5b50610957600480360381019080803590602001908201803590602001908080601f0160208091040260200160405190810160405280939291908181526020018383808284378201915050505050509192919290803590602001908201803590602001908080601f01602080910402602001604051908101604052809392919081815260200183838082843782019150505050505091929192905050506123b7565b604051808215151515815260200191505060405180910390f35b34801561097d57600080fd5b50610a1e600480360381019080803590602001908201803590602001908080601f0160208091040260200160405190810160405280939291908181526020018383808284378201915050505050509192919290803590602001908201803590602001908080601f016020809104026020016040519081016040528093929190818152602001838380828437820191505050505050919291929050505061257d565b005b348015610a2c57600080fd5b50610acd600480360381019080803590602001908201803590602001908080601f0160208091040260200160405190810160405280939291908181526020018383808284378201915050505050509192919290803590602001908201803590602001908080601f016020809104026020016040519081016040528093929190818152602001838380828437820191505050505050919291929050505061280c565b005b348015610adb57600080fd5b50610ae4612a11565b005b348015610af257600080fd5b50610b4d600480360381019080803590602001908201803590602001908080601f0160208091040260200160405190810160405280939291908181526020018383808284378201915050505050509192919290505050612a7a565b005b348015610b5b57600080fd5b50610c42600480360381019080803590602001908201803590602001908080601f0160208091040260200160405190810160405280939291908181526020018383808284378201915050505050509192919290803590602001908201803590602001908080601f0160208091040260200160405190810160405280939291908181526020018383808284378201915050505050509192919290803590602001908201803590602001908080601f0160208091040260200160405190810160405280939291908181526020018383808284378201915050505050509192919290505050612c85565b005b348015610c5057600080fd5b50610c85600480360381019080803573ffffffffffffffffffffffffffffffffffffffff169060200190929190505050612f98565b60405180806020018360ff1660ff168152602001828103825284818151815260200191508051906020019080838360005b83811015610cd1578082015181840152602081019050610cb6565b50505050905090810190601f168015610cfe5780820380516001836020036101000a031916815260200191505b50935050505060405180910390f35b348015610d1957600080fd5b50610d4e600480360381019080803573ffffffffffffffffffffffffffffffffffffffff169060200190929190505050613182565b6040518080602001828103825283818151815260200191508051906020019080838360005b83811015610d8e578082015181840152602081019050610d73565b50505050905090810190601f168015610dbb5780820380516001836020036101000a031916815260200191505b509250505060405180910390f35b348015610dd557600080fd5b50610e0a600480360381019080803573ffffffffffffffffffffffffffffffffffffffff169060200190929190505050613266565b6040518080602001806020018060200180602001858103855289818151815260200191508051906020019080838360005b83811015610e56578082015181840152602081019050610e3b565b50505050905090810190601f168015610e835780820380516001836020036101000a031916815260200191505b50858103845288818151815260200191508051906020019080838360005b83811015610ebc578082015181840152602081019050610ea1565b50505050905090810190601f168015610ee95780820380516001836020036101000a031916815260200191505b50858103835287818151815260200191508051906020019080838360005b83811015610f22578082015181840152602081019050610f07565b50505050905090810190601f168015610f4f5780820380516001836020036101000a031916815260200191505b50858103825286818151815260200191508051906020019080838360005b83811015610f88578082015181840152602081019050610f6d565b50505050905090810190601f168015610fb55780820380516001836020036101000a031916815260200191505b509850505050505050505060405180910390f35b6060610fd433613182565b9050610ff08160206040519081016040528060008152506123b7565b15151561108b576040517f08c379a00000000000000000000000000000000000000000000000000000000081526004018080602001828103825260388152602001807f4163636f756e7420666f722063757272656e742061646472657373206c6f676781526020017f656420696e20636f756c64206e6f7420626520666f756e64000000000000000081525060400191505060405180910390fd5b6110a58460206040519081016040528060008152506123b7565b151561112f57836002826040518082805190602001908083835b6020831015156110e457805182526020820191506020810190506020830392506110bf565b6001836020036101000a0380198251168184511680821785525050505050509050019150509081526020016040518091039020600001908051906020019061112d929190613723565b505b6111498360206040519081016040528060008152506123b7565b15156111d357826002826040518082805190602001908083835b6020831015156111885780518252602082019150602081019050602083039250611163565b6001836020036101000a038019825116818451168082178552505050505050905001915050908152602001604051809103902060020190805190602001906111d1929190613723565b505b6111ed8260206040519081016040528060008152506123b7565b151561127757816002826040518082805190602001908083835b60208310151561122c5780518252602082019150602081019050602083039250611207565b6001836020036101000a03801982511681845116808217855250505050505090500191505090815260200160405180910390206003019080519060200190611275929190613723565b505b50505050565b60608061128984613182565b90506112a58160206040519081016040528060008152506123b7565b151515611340576040517f08c379a00000000000000000000000000000000000000000000000000000000081526004018080602001828103825260388152602001807f4163636f756e7420666f722063757272656e742061646472657373206c6f676781526020017f656420696e20636f756c64206e6f7420626520666f756e64000000000000000081525060400191505060405180910390fd5b6003816040518082805190602001908083835b6020831015156113785780518252602082019150602081019050602083039250611353565b6001836020036101000a03801982511681845116808217855250505050505090500191505090815260200160405180910390206000018360ff168154811015156113be57fe5b906000526020600020018054600181600116156101000203166002900480601f01602080910402602001604051908101604052809291908181526020018280546001816001161561010002031660029004801561145c5780601f106114315761010080835404028352916020019161145c565b820191906000526020600020905b81548152906001019060200180831161143f57829003601f168201915b505050505091505092915050565b60608061147684613182565b90506114928160206040519081016040528060008152506123b7565b15151561152d576040517f08c379a00000000000000000000000000000000000000000000000000000000081526004018080602001828103825260388152602001807f4163636f756e7420666f722063757272656e742061646472657373206c6f676781526020017f656420696e20636f756c64206e6f7420626520666f756e64000000000000000081525060400191505060405180910390fd5b6005816040518082805190602001908083835b6020831015156115655780518252602082019150602081019050602083039250611540565b6001836020036101000a03801982511681845116808217855250505050505090500191505090815260200160405180910390206000018360ff168154811015156115ab57fe5b906000526020600020018054600181600116156101000203166002900480601f0160208091040260200160405190810160405280929190818152602001828054600181600116156101000203166002900480156116495780601f1061161e57610100808354040283529160200191611649565b820191906000526020600020905b81548152906001019060200180831161162c57829003601f168201915b505050505091505092915050565b600060608061166584613182565b90506116818160206040519081016040528060008152506123b7565b15151561171c576040517f08c379a00000000000000000000000000000000000000000000000000000000081526004018080602001828103825260388152602001807f4163636f756e7420666f722063757272656e742061646472657373206c6f676781526020017f656420696e20636f756c64206e6f7420626520666f756e64000000000000000081525060400191505060405180910390fd5b6004816040518082805190602001908083835b602083101515611754578051825260208201915060208101905060208303925061172f565b6001836020036101000a038019825116818451168082178552505050505050905001915050908152602001604051809103902060010160009054906101000a900460ff166004826040518082805190602001908083835b6020831015156117d057805182526020820191506020810190506020830392506117ab565b6001836020036101000a0380198251168184511680821785525050505050509050019150509081526020016040518091039020600201808054600181600116156101000203166002900480601f01602080910402602001604051908101604052809291908181526020018280546001816001161561010002031660029004801561189b5780601f106118705761010080835404028352916020019161189b565b820191906000526020600020905b81548152906001019060200180831161187e57829003601f168201915b505050505090509250925050915091565b600060606118b983613182565b90506118d58160206040519081016040528060008152506123b7565b151515611970576040517f08c379a00000000000000000000000000000000000000000000000000000000081526004018080602001828103825260388152602001807f4163636f756e7420666f722063757272656e742061646472657373206c6f676781526020017f656420696e20636f756c64206e6f7420626520666f756e64000000000000000081525060400191505060405180910390fd5b6003816040518082805190602001908083835b6020831015156119a85780518252602082019150602081019050602083039250611983565b6001836020036101000a038019825116818451168082178552505050505050905001915050908152602001604051809103902060010160009054906101000a900460ff16915050919050565b60008060149054906101000a900460ff16905090565b600015156002856040518082805190602001908083835b602083101515611a465780518252602082019150602081019050602083039250611a21565b6001836020036101000a038019825116818451168082178552505050505050905001915050908152602001604051809103902060040160009054906101000a900460ff161515141515611b01576040517f08c379a00000000000000000000000000000000000000000000000000000000081526004018080602001828103825260168152602001807f4163636f756e7420616c7265616479206578697374730000000000000000000081525060200191505060405180910390fd5b826002856040518082805190602001908083835b602083101515611b3a5780518252602082019150602081019050602083039250611b15565b6001836020036101000a03801982511681845116808217855250505050505090500191505090815260200160405180910390206000019080519060200190611b83929190613723565b50806002856040518082805190602001908083835b602083101515611bbd5780518252602082019150602081019050602083039250611b98565b6001836020036101000a03801982511681845116808217855250505050505090500191505090815260200160405180910390206002019080519060200190611c06929190613723565b50816002856040518082805190602001908083835b602083101515611c405780518252602082019150602081019050602083039250611c1b565b6001836020036101000a03801982511681845116808217855250505050505090500191505090815260200160405180910390206001019080519060200190611c89929190613723565b5060016002856040518082805190602001908083835b602083101515611cc45780518252602082019150602081019050602083039250611c9f565b6001836020036101000a038019825116818451168082178552505050505050905001915050908152602001604051809103902060040160006101000a81548160ff02191690831515021790555083600160003373ffffffffffffffffffffffffffffffffffffffff1673ffffffffffffffffffffffffffffffffffffffff1681526020019081526020016000206000019080519060200190611d67929190613723565b506001600060148282829054906101000a900460ff160192506101000a81548160ff021916908360ff16021790555050505050565b606080611da884613182565b9050611dc48160206040519081016040528060008152506123b7565b151515611e5f576040517f08c379a00000000000000000000000000000000000000000000000000000000081526004018080602001828103825260388152602001807f4163636f756e7420666f722063757272656e742061646472657373206c6f676781526020017f656420696e20636f756c64206e6f7420626520666f756e64000000000000000081525060400191505060405180910390fd5b6004816040518082805190602001908083835b602083101515611e975780518252602082019150602081019050602083039250611e72565b6001836020036101000a03801982511681845116808217855250505050505090500191505090815260200160405180910390206000018360ff16815481101515611edd57fe5b906000526020600020018054600181600116156101000203166002900480601f016020809104026020016040519081016040528092919081815260200182805460018160011615610100020316600290048015611f7b5780601f10611f5057610100808354040283529160200191611f7b565b820191906000526020600020905b815481529060010190602001808311611f5e57829003601f168201915b505050505091505092915050565b60006060611f9683613182565b9050611fb28160206040519081016040528060008152506123b7565b15151561204d576040517f08c379a00000000000000000000000000000000000000000000000000000000081526004018080602001828103825260388152602001807f4163636f756e7420666f722063757272656e742061646472657373206c6f676781526020017f656420696e20636f756c64206e6f7420626520666f756e64000000000000000081525060400191505060405180910390fd5b6005816040518082805190602001908083835b6020831015156120855780518252602082019150602081019050602083039250612060565b6001836020036101000a038019825116818451168082178552505050505050905001915050908152602001604051809103902060010160009054906101000a900460ff16915050919050565b60606120dc33613182565b90506120f88160206040519081016040528060008152506123b7565b151515612193576040517f08c379a00000000000000000000000000000000000000000000000000000000081526004018080602001828103825260388152602001807f4163636f756e7420666f722063757272656e742061646472657373206c6f676781526020017f656420696e20636f756c64206e6f7420626520666f756e64000000000000000081525060400191505060405180910390fd5b816006826040518082805190602001908083835b6020831015156121cc57805182526020820191506020810190506020830392506121a7565b6001836020036101000a03801982511681845116808217855250505050505090500191505090815260200160405180910390206000019080519060200190612215929190613723565b506001600060158282829054906101000a900460ff160192506101000a81548160ff021916908360ff1602179055505050565b6000809054906101000a900473ffffffffffffffffffffffffffffffffffffffff1681565b606061227883613182565b90506122948160206040519081016040528060008152506123b7565b15151561232f576040517f08c379a00000000000000000000000000000000000000000000000000000000081526004018080602001828103825260388152602001807f4163636f756e7420666f722063757272656e742061646472657373206c6f676781526020017f656420696e20636f756c64206e6f7420626520666f756e64000000000000000081525060400191505060405180910390fd5b816006826040518082805190602001908083835b6020831015156123685780518252602082019150602081019050602083039250612343565b6001836020036101000a038019825116818451168082178552505050505050905001915050908152602001604051809103902060000190805190602001906123b1929190613723565b50505050565b6000815183511415156123cd5760009050612577565b816040516020018082805190602001908083835b60208310151561240657805182526020820191506020810190506020830392506123e1565b6001836020036101000a0380198251168184511680821785525050505050509050019150506040516020818303038152906040526040518082805190602001908083835b60208310151561246f578051825260208201915060208101905060208303925061244a565b6001836020036101000a038019825116818451168082178552505050505050905001915050604051809103902060001916836040516020018082805190602001908083835b6020831015156124d957805182526020820191506020810190506020830392506124b4565b6001836020036101000a0380198251168184511680821785525050505050509050019150506040516020818303038152906040526040518082805190602001908083835b602083101515612542578051825260208201915060208101905060208303925061251d565b6001836020036101000a0380198251168184511680821785525050505050509050019150506040518091039020600019161490505b92915050565b606061258833613182565b90506125a48160206040519081016040528060008152506123b7565b15151561263f576040517f08c379a00000000000000000000000000000000000000000000000000000000081526004018080602001828103825260388152602001807f4163636f756e7420666f722063757272656e742061646472657373206c6f676781526020017f656420696e20636f756c64206e6f7420626520666f756e64000000000000000081525060400191505060405180910390fd5b6005816040518082805190602001908083835b6020831015156126775780518252602082019150602081019050602083039250612652565b6001836020036101000a03801982511681845116808217855250505050505090500191505090815260200160405180910390206000018390806001815401808255809150509060018203906000526020600020016000909192909190915090805190602001906126e8929190613723565b505060016005826040518082805190602001908083835b60208310151561272457805182526020820191506020810190506020830392506126ff565b6001836020036101000a038019825116818451168082178552505050505050905001915050908152602001604051809103902060010160008282829054906101000a900460ff160192506101000a81548160ff021916908360ff160217905550816004826040518082805190602001908083835b6020831015156127bd5780518252602082019150602081019050602083039250612798565b6001836020036101000a03801982511681845116808217855250505050505090500191505090815260200160405180910390206002019080519060200190612806929190613723565b50505050565b61291c6002836040518082805190602001908083835b6020831015156128475780518252602082019150602081019050602083039250612822565b6001836020036101000a03801982511681845116808217855250505050505090500191505090815260200160405180910390206001018054600181600116156101000203166002900480601f0160208091040260200160405190810160405280929190818152602001828054600181600116156101000203166002900480156129115780601f106128e657610100808354040283529160200191612911565b820191906000526020600020905b8154815290600101906020018083116128f457829003601f168201915b5050505050826123b7565b15156129b6576040517f08c379a00000000000000000000000000000000000000000000000000000000081526004018080602001828103825260298152602001807f4c6f67696e20496e666f20697320696e636f72726563742e20506c656173652081526020017f54727920616761696e000000000000000000000000000000000000000000000081525060400191505060405180910390fd5b81600160003373ffffffffffffffffffffffffffffffffffffffff1673ffffffffffffffffffffffffffffffffffffffff1681526020019081526020016000206000019080519060200190612a0c929190613723565b505050565b6020604051908101604052806000815250600160003373ffffffffffffffffffffffffffffffffffffffff1673ffffffffffffffffffffffffffffffffffffffff1681526020019081526020016000206000019080519060200190612a77929190613723565b50565b6060612a8533613182565b9050612aa18160206040519081016040528060008152506123b7565b151515612b3c576040517f08c379a00000000000000000000000000000000000000000000000000000000081526004018080602001828103825260388152602001807f4163636f756e7420666f722063757272656e742061646472657373206c6f676781526020017f656420696e20636f756c64206e6f7420626520666f756e64000000000000000081525060400191505060405180910390fd5b6003816040518082805190602001908083835b602083101515612b745780518252602082019150602081019050602083039250612b4f565b6001836020036101000a0380198251168184511680821785525050505050509050019150509081526020016040518091039020600001829080600181540180825580915050906001820390600052602060002001600090919290919091509080519060200190612be5929190613723565b505060016003826040518082805190602001908083835b602083101515612c215780518252602082019150602081019050602083039250612bfc565b6001836020036101000a038019825116818451168082178552505050505050905001915050908152602001604051809103902060010160008282829054906101000a900460ff160192506101000a81548160ff021916908360ff1602179055505050565b6060612c9033613182565b9050612cac8160206040519081016040528060008152506123b7565b151515612d47576040517f08c379a00000000000000000000000000000000000000000000000000000000081526004018080602001828103825260388152602001807f4163636f756e7420666f722063757272656e742061646472657373206c6f676781526020017f656420696e20636f756c64206e6f7420626520666f756e64000000000000000081525060400191505060405180910390fd5b6004816040518082805190602001908083835b602083101515612d7f5780518252602082019150602081019050602083039250612d5a565b6001836020036101000a0380198251168184511680821785525050505050509050019150509081526020016040518091039020600001849080600181540180825580915050906001820390600052602060002001600090919290919091509080519060200190612df0929190613723565b505060016004826040518082805190602001908083835b602083101515612e2c5780518252602082019150602081019050602083039250612e07565b6001836020036101000a038019825116818451168082178552505050505050905001915050908152602001604051809103902060010160008282829054906101000a900460ff160192506101000a81548160ff021916908360ff160217905550826004826040518082805190602001908083835b602083101515612ec55780518252602082019150602081019050602083039250612ea0565b6001836020036101000a03801982511681845116808217855250505050505090500191505090815260200160405180910390206002019080519060200190612f0e929190613723565b50816006826040518082805190602001908083835b602083101515612f485780518252602082019150602081019050602083039250612f23565b6001836020036101000a03801982511681845116808217855250505050505090500191505090815260200160405180910390206000019080519060200190612f91929190613723565b5050505050565b606060006060612fa784613182565b9050612fc38160206040519081016040528060008152506123b7565b15151561305e576040517f08c379a00000000000000000000000000000000000000000000000000000000081526004018080602001828103825260388152602001807f4163636f756e7420666f722063757272656e742061646472657373206c6f676781526020017f656420696e20636f756c64206e6f7420626520666f756e64000000000000000081525060400191505060405180910390fd5b6006816040518082805190602001908083835b6020831015156130965780518252602082019150602081019050602083039250613071565b6001836020036101000a0380198251168184511680821785525050505050509050019150509081526020016040518091039020600001600060159054906101000a900460ff16818054600181600116156101000203166002900480601f0160208091040260200160405190810160405280929190818152602001828054600181600116156101000203166002900480156131715780601f1061314657610100808354040283529160200191613171565b820191906000526020600020905b81548152906001019060200180831161315457829003601f168201915b505050505091509250925050915091565b6060600160008373ffffffffffffffffffffffffffffffffffffffff1673ffffffffffffffffffffffffffffffffffffffff1681526020019081526020016000206000018054600181600116156101000203166002900480601f01602080910402602001604051908101604052809291908181526020018280546001816001161561010002031660029004801561325a5780601f1061322f5761010080835404028352916020019161325a565b820191906000526020600020905b81548152906001019060200180831161323d57829003601f168201915b50505050509050919050565b606080606080606061327786613182565b90506132938160206040519081016040528060008152506123b7565b15156136ce576002816040518082805190602001908083835b6020831015156132d157805182526020820191506020810190506020830392506132ac565b6001836020036101000a03801982511681845116808217855250505050505090500191505090815260200160405180910390206000016002826040518082805190602001908083835b60208310151561333f578051825260208201915060208101905060208303925061331a565b6001836020036101000a03801982511681845116808217855250505050505090500191505090815260200160405180910390206002016002836040518082805190602001908083835b6020831015156133ad5780518252602082019150602081019050602083039250613388565b6001836020036101000a03801982511681845116808217855250505050505090500191505090815260200160405180910390206003016002846040518082805190602001908083835b60208310151561341b57805182526020820191506020810190506020830392506133f6565b6001836020036101000a0380198251168184511680821785525050505050509050019150509081526020016040518091039020600101838054600181600116156101000203166002900480601f0160208091040260200160405190810160405280929190818152602001828054600181600116156101000203166002900480156134e65780601f106134bb576101008083540402835291602001916134e6565b820191906000526020600020905b8154815290600101906020018083116134c957829003601f168201915b50505050509350828054600181600116156101000203166002900480601f0160208091040260200160405190810160405280929190818152602001828054600181600116156101000203166002900480156135825780601f1061355757610100808354040283529160200191613582565b820191906000526020600020905b81548152906001019060200180831161356557829003601f168201915b50505050509250818054600181600116156101000203166002900480601f01602080910402602001604051908101604052809291908181526020018280546001816001161561010002031660029004801561361e5780601f106135f35761010080835404028352916020019161361e565b820191906000526020600020905b81548152906001019060200180831161360157829003601f168201915b50505050509150808054600181600116156101000203166002900480601f0160208091040260200160405190810160405280929190818152602001828054600181600116156101000203166002900480156136ba5780601f1061368f576101008083540402835291602001916136ba565b820191906000526020600020905b81548152906001019060200180831161369d57829003601f168201915b50505050509050945094509450945061371b565b602060405190810160405280600081525060206040519081016040528060008152506020604051908101604052806000815250602060405190810160405280600081525094509450945094505b509193509193565b828054600181600116156101000203166002900490600052602060002090601f016020900481019282601f1061376457805160ff1916838001178555613792565b82800160010185558215613792579182015b82811115613791578251825591602001919060010190613776565b5b50905061379f91906137a3565b5090565b6137c591905b808211156137c15760008160009055506001016137a9565b5090565b905600a165627a7a723058203b45eb5aa059f1284f91c754228b80c140faf082652beb01a5493620bb1d85b30029",
  "source": "pragma solidity ^0.4.24;\r\n\r\ncontract DMV{\r\n\r\n\t//Store current user address when page was loaded\r\n    address public owner;\r\n    \r\n    constructor() public{\r\n        owner = msg.sender;\r\n    }\r\n    \r\n\t//Check if current address from METAMASK is the original owner address\r\n    modifier onlyBy(address _account)\r\n    {\r\n        require(msg.sender == _account, \"Sender not authorized.\");\r\n        // Do not forget the \"_;\"! It will\r\n        // be replaced by the actual function\r\n        // body when the modifier is used.\r\n        _;\r\n    }\r\n    \r\n\t//Defined Structs\r\n    struct AccountStruct{\r\n       string userInfo;\r\n       string loginHashCheck;\r\n\t   string testGrades;\r\n\t   string realID;\r\n\t   bool isCreated;\r\n    }\r\n\t\r\n\tuint8 numberofAccounts;\r\n\tuint8 carTitleCount;\r\n    \r\n    struct LoginStruct{\r\n       string driverLicense;\r\n    }\r\n\t\r\n\tstruct VitalRecordRequestStruct{\r\n       string[] requestInfo;\r\n\t   uint8 requestCount;\r\n    }\r\n\t\r\n\tstruct SoldVehicleReceiptStruct{\r\n       string[] soldVehicleInfo;\r\n\t   uint8 soldVehicleCount;\r\n\t   string soldVehicleCarTitles;\r\n    }\r\n\t\r\n\tstruct ReportVehicleStruct{\r\n       string[] reportVehicleInfo;\r\n\t   uint8 reportVehicleCount;\r\n    }\r\n\t\r\n\tstruct CarTitleStruct{\r\n       string fullCarTitleInformation;\r\n    }\r\n\t\r\n    //Defined mappings\r\n    mapping(address => LoginStruct) activeLogins;\r\n    mapping(string => AccountStruct) allAccounts;\r\n\tmapping(string => VitalRecordRequestStruct) allVitalRecordRequests;\r\n\tmapping(string => SoldVehicleReceiptStruct) allSoldVehicleReceipts;\r\n\tmapping(string => ReportVehicleStruct) allReportedVehicles;\r\n\tmapping(string => CarTitleStruct) allCarTitles;\r\n\t\r\n    //Create an account for current user address with their driver license as a key to lookup their information\r\n    function createAccount(string memory _driverLicense,string memory _userInfo,string memory _loginHashCheck, string memory _testGrades) public{\r\n\t   \r\n\t    require(\r\n            allAccounts[_driverLicense].isCreated == false,\r\n            \"Account already exists\"\r\n        );\r\n\t\t\r\n    \tallAccounts[_driverLicense].userInfo = _userInfo;\r\n    \tallAccounts[_driverLicense].testGrades = _testGrades;\r\n    \tallAccounts[_driverLicense].loginHashCheck = _loginHashCheck;\r\n\t\tallAccounts[_driverLicense].isCreated = true;\r\n\t\tactiveLogins[msg.sender].driverLicense = _driverLicense;\r\n\t\tnumberofAccounts+=1;\r\n    }\r\n    \r\n\t//Get user with current address's license account information by getting their logged in license number\r\n    function getAccount(address _currentaddress) public view returns(string memory,string memory,string memory,string memory)  {\r\n        string memory license = getLogin(_currentaddress);\r\n        if(!compareStrings(license, \"\")){\r\n            return (allAccounts[license].userInfo,allAccounts[license].testGrades,allAccounts[license].realID,allAccounts[license].loginHashCheck);\r\n        }\r\n        else{\r\n            return (\"\",\"\",\"\",\"\");\r\n        }\r\n    }\r\n\t\r\n\t//Get Number of accounts\r\n    function getNumberofAccounts() public view returns(uint8)  {\r\n        return numberofAccounts;\r\n    }\r\n\t\r\n\t//Update current address's license account information by getting their logged in license number\r\n\tfunction updateAccount(string memory _userInfo,string memory _testGrades, string memory _realID) public{\r\n\t   \r\n\t    string memory license = getLogin(msg.sender);\r\n\t   \r\n\t    require(\r\n            !compareStrings(license, \"\"),\r\n            \"Account for current address logged in could not be found\"\r\n        );\r\n\t\t\r\n\t\tif(!compareStrings( _userInfo, \"\")){\r\n\t\t\tallAccounts[license].userInfo = _userInfo;\r\n\t\t}\r\n\t\tif(!compareStrings(_testGrades, \"\")){\r\n\t\t\tallAccounts[license].testGrades = _testGrades;\r\n\t\t}\r\n\t\tif(!compareStrings(_realID, \"\")){\r\n\t\t\tallAccounts[license].realID = _realID;\r\n\t\t}\r\n    }\r\n\t\r\n\t\r\n    //Verify login credentials and then set logged in driver license as specified driver license \r\n    function Login(string memory _driverLicense, string memory _loginHashCheck) public{\r\n\t\trequire(\r\n            compareStrings(allAccounts[_driverLicense].loginHashCheck, _loginHashCheck),\r\n            \"Login Info is incorrect. Please Try again\"\r\n        );\r\n\t\tactiveLogins[msg.sender].driverLicense = _driverLicense;\r\n    }\r\n    \r\n\t//Get logged in driver license. Used in all functions to get current user credentials\r\n    function getLogin(address _currentaddress) public view returns(string memory){\r\n    \treturn activeLogins[_currentaddress].driverLicense;\r\n    }\r\n    //Set logged in driver license to empty string\r\n    function Logout() public{\r\n    \tactiveLogins[msg.sender].driverLicense = \"\";\r\n    }\r\n    \r\n    //Used to compare if string are equal por not\r\n    function compareStrings (string memory a, string memory b) public view returns (bool) {\r\n            if(bytes(a).length != bytes(b).length) {\r\n\t\t\t\treturn false;\r\n\t\t\t} else {\r\n\t\t\t\treturn (keccak256(abi.encodePacked((a))) == keccak256(abi.encodePacked((b))) );\r\n\t\t\t}\r\n\r\n       }\r\n\t  \r\n\t  \r\n\t//Create vital record request with current address's license account information by getting their logged in license number\r\n\tfunction createVitalRecordRequest(string memory _requestInfo) public {\r\n\t\r\n\t\tstring memory license = getLogin(msg.sender);\r\n\t   \r\n\t    require(\r\n            !compareStrings(license, \"\"),\r\n            \"Account for current address logged in could not be found\"\r\n        );\r\n\t\r\n\t\tallVitalRecordRequests[license].requestInfo.push(_requestInfo);\r\n\t\tallVitalRecordRequests[license].requestCount+=1;\r\n\t}\r\n\t\r\n\t//Get vital record request by index with current address's license account information by getting their logged in license number\r\n\tfunction getRecordRequestIndex(address _currentaddress,uint8 _index) public view returns(string memory)  {\r\n        string memory license = getLogin(_currentaddress);\r\n\t\t\r\n\t\trequire(\r\n            !compareStrings(license, \"\"),\r\n            \"Account for current address logged in could not be found\"\r\n        );\r\n\t\t\r\n        return (allVitalRecordRequests[license].requestInfo[_index]);\r\n    }\r\n\t\r\n\t//Get vital record request count with current address's license account information by getting their logged in license number\r\n\tfunction getRecordRequestCount(address _currentaddress) public view returns(uint8)  {\r\n        string memory license = getLogin(_currentaddress);\r\n\t\t\r\n\t\trequire(\r\n            !compareStrings(license, \"\"),\r\n            \"Account for current address logged in could not be found\"\r\n        );\r\n\t\t\r\n        return (allVitalRecordRequests[license].requestCount);\r\n    }\r\n\t\r\n\t//Create sold vehicle receipt with current address's license account information by getting their logged in license number\r\n\tfunction createSoldVehicleReceipt(string memory _soldVehicleInfo, string memory _soldVehicleCarTitles,string memory _fullCarTitleInformation) public {\r\n\t\r\n\t\tstring memory license = getLogin(msg.sender);\r\n\t   \r\n\t    require(\r\n            !compareStrings(license, \"\"),\r\n            \"Account for current address logged in could not be found\"\r\n        );\r\n\t\r\n\t\tallSoldVehicleReceipts[license].soldVehicleInfo.push(_soldVehicleInfo);\r\n\t\tallSoldVehicleReceipts[license].soldVehicleCount+=1;\r\n\t\tallSoldVehicleReceipts[license].soldVehicleCarTitles = _soldVehicleCarTitles;\r\n\t\tallCarTitles[license].fullCarTitleInformation = _fullCarTitleInformation;\r\n\t}\r\n\t\r\n\t//Get sold vehicle receipt with current address's license account information by getting their logged in license number\r\n\tfunction getSoldVehicleReceiptIndex(address _currentaddress, uint8 _index) public view returns(string memory)  {\r\n        string memory license = getLogin(_currentaddress);\r\n\t\trequire(\r\n            !compareStrings(license, \"\"),\r\n            \"Account for current address logged in could not be found\"\r\n        );\r\n        return (allSoldVehicleReceipts[license].soldVehicleInfo[_index]);\r\n    }\r\n\t\r\n\t//Get sold vehicle receipt count with current address's license account information by getting their logged in license number\r\n\tfunction getSoldVehicleReceiptCountAndCarTitles(address _currentaddress) public view returns(uint8,string memory)  {\r\n        string memory license = getLogin(_currentaddress);\r\n\t\trequire(\r\n            !compareStrings(license, \"\"),\r\n            \"Account for current address logged in could not be found\"\r\n        );\r\n        return (allSoldVehicleReceipts[license].soldVehicleCount,allSoldVehicleReceipts[license].soldVehicleCarTitles);\r\n    }\r\n\t\r\n\t//Create reported vehicle with current address's license account information by getting their logged in license number\r\n\tfunction createReportedVehicle(string memory _reportVehicleInfo,string memory _soldVehicleCarTitles) public {\r\n\t\r\n\t\tstring memory license = getLogin(msg.sender);\r\n\t   \r\n\t    require(\r\n            !compareStrings(license, \"\"),\r\n            \"Account for current address logged in could not be found\"\r\n        );\r\n\t\r\n\t\tallReportedVehicles[license].reportVehicleInfo.push(_reportVehicleInfo);\r\n\t\tallReportedVehicles[license].reportVehicleCount+=1;\r\n\t\tallSoldVehicleReceipts[license].soldVehicleCarTitles = _soldVehicleCarTitles;\r\n\t}\r\n\t\r\n\t//Get reported vehicle by index with current address's license account information by getting their logged in license number\r\n\tfunction getReportedVehicleIndex(address _currentaddress, uint8 _index) public view returns(string memory)  {\r\n        string memory license = getLogin(_currentaddress);\r\n\t\t\r\n\t\trequire(\r\n            !compareStrings(license, \"\"),\r\n            \"Account for current address logged in could not be found\"\r\n        );\r\n\t\t\r\n        return allReportedVehicles[license].reportVehicleInfo[_index];\r\n    }\r\n\t\r\n\t//Get reported vehicle count with current address's license account information by getting their logged in license number\r\n\tfunction getReportedVehicleCount(address _currentaddress) public view returns(uint8)  {\r\n        string memory license = getLogin(_currentaddress);\r\n\t\t\r\n\t\trequire(\r\n            !compareStrings(license, \"\"),\r\n            \"Account for current address logged in could not be found\"\r\n        );\r\n\t\t\r\n        return allReportedVehicles[license].reportVehicleCount;\r\n    }\r\n\t\r\n\t//Create car title with current address's license account information by getting their logged in license number\r\n\tfunction createCarTitleInformation(string memory _fullCarTitleInformation) public {\r\n\t\r\n\t\tstring memory license = getLogin(msg.sender);\r\n\t   \r\n\t    require(\r\n            !compareStrings(license, \"\"),\r\n            \"Account for current address logged in could not be found\"\r\n        );\r\n\t\t\r\n\t\tallCarTitles[license].fullCarTitleInformation = _fullCarTitleInformation;\r\n\t\tcarTitleCount += 1;\r\n\t}\r\n\t\r\n\t//Update car title with current address's license account information by getting their logged in license number\r\n\tfunction updateCarTitleInformation(address _currentaddress, string memory _fullCarTitleInformation) public {\r\n\t\r\n\t\tstring memory license = getLogin(_currentaddress);\r\n\t   \r\n\t    require(\r\n            !compareStrings(license, \"\"),\r\n            \"Account for current address logged in could not be found\"\r\n        );\r\n\t\t\r\n\t\tallCarTitles[license].fullCarTitleInformation = _fullCarTitleInformation;\r\n\t}\r\n\t\r\n\t//Get car title with current address's license account information by getting their logged in license number\r\n\tfunction getCarTitleInformation(address _currentaddress) public view returns(string memory,uint8){\r\n\t\r\n\t\tstring memory license = getLogin(_currentaddress);\r\n\t   \r\n\t    require(\r\n            !compareStrings(license, \"\"),\r\n            \"Account for current address logged in could not be found\"\r\n        );\r\n\t\t\r\n\t\treturn (allCarTitles[license].fullCarTitleInformation,carTitleCount);\r\n\t}\r\n\r\n}\r\n",
  "sourcePath": "C:\\Users\\CJ1996\\Documents\\Libraries\\Documents\\Old Dominion University\\Spring 2020\\CS 764\\Project\\contracts\\DMV.sol",
  "compiler": {
    "name": "solc",
    "version": "0.4.24+commit.e67f0147.Emscripten.clang"
  },
  "schemaVersion": "3.0.23",
  "updatedAt": "2020-04-27T04:27:44.664Z",
  "networkType": "ethereum",
  "devdoc": {
    "methods": {}
  },
  "userdoc": {
    "methods": {}
  }
}