{
  "contractName": "DMV",
  "abi": [
    {
      "constant": true,
      "inputs": [],
      "name": "owner",
      "outputs": [
        {
          "name": "",
          "type": "address"
        }
      ],
      "payable": false,
      "stateMutability": "view",
      "type": "function"
    },
    {
      "inputs": [],
      "payable": false,
      "stateMutability": "nonpayable",
      "type": "constructor"
    },
    {
      "constant": false,
      "inputs": [
        {
          "name": "_driverLicense",
          "type": "string"
        },
        {
          "name": "_userInfo",
          "type": "string"
        },
        {
          "name": "_loginHashCheck",
          "type": "string"
        },
        {
          "name": "_testGrades",
          "type": "string"
        }
      ],
      "name": "createAccount",
      "outputs": [],
      "payable": false,
      "stateMutability": "nonpayable",
      "type": "function"
    },
    {
      "constant": true,
      "inputs": [],
      "name": "getAccount",
      "outputs": [
        {
          "name": "",
          "type": "string"
        },
        {
          "name": "",
          "type": "string"
        },
        {
          "name": "",
          "type": "string"
        },
        {
          "name": "",
          "type": "string"
        }
      ],
      "payable": false,
      "stateMutability": "view",
      "type": "function"
    },
    {
      "constant": true,
      "inputs": [],
      "name": "getNumberofAccounts",
      "outputs": [
        {
          "name": "",
          "type": "uint8"
        }
      ],
      "payable": false,
      "stateMutability": "view",
      "type": "function"
    },
    {
      "constant": false,
      "inputs": [
        {
          "name": "_userInfo",
          "type": "string"
        },
        {
          "name": "_testGrades",
          "type": "string"
        },
        {
          "name": "_realID",
          "type": "string"
        }
      ],
      "name": "updateAccount",
      "outputs": [],
      "payable": false,
      "stateMutability": "nonpayable",
      "type": "function"
    },
    {
      "constant": false,
      "inputs": [
        {
          "name": "_driverLicense",
          "type": "string"
        },
        {
          "name": "_loginHashCheck",
          "type": "string"
        }
      ],
      "name": "Login",
      "outputs": [],
      "payable": false,
      "stateMutability": "nonpayable",
      "type": "function"
    },
    {
      "constant": true,
      "inputs": [],
      "name": "getLogin",
      "outputs": [
        {
          "name": "",
          "type": "string"
        }
      ],
      "payable": false,
      "stateMutability": "view",
      "type": "function"
    },
    {
      "constant": false,
      "inputs": [],
      "name": "Logout",
      "outputs": [],
      "payable": false,
      "stateMutability": "nonpayable",
      "type": "function"
    },
    {
      "constant": true,
      "inputs": [
        {
          "name": "a",
          "type": "string"
        },
        {
          "name": "b",
          "type": "string"
        }
      ],
      "name": "compareStrings",
      "outputs": [
        {
          "name": "",
          "type": "bool"
        }
      ],
      "payable": false,
      "stateMutability": "view",
      "type": "function"
    },
    {
      "constant": false,
      "inputs": [
        {
          "name": "_requestInfo",
          "type": "string"
        }
      ],
      "name": "createVitalRecordRequest",
      "outputs": [],
      "payable": false,
      "stateMutability": "nonpayable",
      "type": "function"
    },
    {
      "constant": true,
      "inputs": [
        {
          "name": "_index",
          "type": "uint8"
        }
      ],
      "name": "getRecordRequestIndex",
      "outputs": [
        {
          "name": "",
          "type": "string"
        }
      ],
      "payable": false,
      "stateMutability": "view",
      "type": "function"
    },
    {
      "constant": true,
      "inputs": [],
      "name": "getRecordRequestCount",
      "outputs": [
        {
          "name": "",
          "type": "uint8"
        }
      ],
      "payable": false,
      "stateMutability": "view",
      "type": "function"
    },
    {
      "constant": false,
      "inputs": [
        {
          "name": "_soldVehicleInfo",
          "type": "string"
        },
        {
          "name": "_soldVehicleCarTitles",
          "type": "string"
        },
        {
          "name": "_fullCarTitleInformation",
          "type": "string"
        }
      ],
      "name": "createSoldVehicleReceipt",
      "outputs": [],
      "payable": false,
      "stateMutability": "nonpayable",
      "type": "function"
    },
    {
      "constant": true,
      "inputs": [
        {
          "name": "_index",
          "type": "uint8"
        }
      ],
      "name": "getSoldVehicleReceiptIndex",
      "outputs": [
        {
          "name": "",
          "type": "string"
        }
      ],
      "payable": false,
      "stateMutability": "view",
      "type": "function"
    },
    {
      "constant": true,
      "inputs": [],
      "name": "getSoldVehicleReceiptCountAndCarTitles",
      "outputs": [
        {
          "name": "",
          "type": "uint8"
        },
        {
          "name": "",
          "type": "string"
        }
      ],
      "payable": false,
      "stateMutability": "view",
      "type": "function"
    },
    {
      "constant": false,
      "inputs": [
        {
          "name": "_reportVehicleInfo",
          "type": "string"
        },
        {
          "name": "_soldVehicleCarTitles",
          "type": "string"
        }
      ],
      "name": "createReportedVehicle",
      "outputs": [],
      "payable": false,
      "stateMutability": "nonpayable",
      "type": "function"
    },
    {
      "constant": true,
      "inputs": [
        {
          "name": "_index",
          "type": "uint8"
        }
      ],
      "name": "getReportedVehicleIndex",
      "outputs": [
        {
          "name": "",
          "type": "string"
        }
      ],
      "payable": false,
      "stateMutability": "view",
      "type": "function"
    },
    {
      "constant": true,
      "inputs": [],
      "name": "getReportedVehicleCount",
      "outputs": [
        {
          "name": "",
          "type": "uint8"
        }
      ],
      "payable": false,
      "stateMutability": "view",
      "type": "function"
    },
    {
      "constant": false,
      "inputs": [
        {
          "name": "_fullCarTitleInformation",
          "type": "string"
        }
      ],
      "name": "createCarTitleInformation",
      "outputs": [],
      "payable": false,
      "stateMutability": "nonpayable",
      "type": "function"
    },
    {
      "constant": false,
      "inputs": [
        {
          "name": "_fullCarTitleInformation",
          "type": "string"
        }
      ],
      "name": "updateCarTitleInformation",
      "outputs": [],
      "payable": false,
      "stateMutability": "nonpayable",
      "type": "function"
    },
    {
      "constant": true,
      "inputs": [],
      "name": "getCarTitleInformation",
      "outputs": [
        {
          "name": "",
          "type": "string"
        },
        {
          "name": "",
          "type": "uint8"
        }
      ],
      "payable": false,
      "stateMutability": "view",
      "type": "function"
    }
  ],
  "bytecode": "0x608060405234801561001057600080fd5b50336000806101000a81548173ffffffffffffffffffffffffffffffffffffffff021916908373ffffffffffffffffffffffffffffffffffffffff160217905550613dcb806100606000396000f30060806040526004361061011d576000357c0100000000000000000000000000000000000000000000000000000000900463ffffffff16806304d31572146101225780631624d320146102175780631c1f24ed146102c057806322b86e881461032957806323cb0a9f146103b957806326f506d514610456578063454bad03146104875780634ae06098146104b857806371ccb5f9146105f3578063806c2a591461065c5780638da5cb5b146107055780639420c34c1461075c578063bed34bba146107f9578063c2d661ed146108c0578063cb183de91461096f578063ccef421814610a18578063d2ecf4f814610ac7578063db613e8114610ade578063e0f84b0314610cb2578063e2c03a1414610d1b578063ead2657414610d4c575b600080fd5b34801561012e57600080fd5b50610215600480360381019080803590602001908201803590602001908080601f0160208091040260200160405190810160405280939291908181526020018383808284378201915050505050509192919290803590602001908201803590602001908080601f0160208091040260200160405190810160405280939291908181526020018383808284378201915050505050509192919290803590602001908201803590602001908080601f0160208091040260200160405190810160405280939291908181526020018383808284378201915050505050509192919290505050610e41565b005b34801561022357600080fd5b50610245600480360381019080803560ff1690602001909291905050506111ba565b6040518080602001828103825283818151815260200191508051906020019080838360005b8381101561028557808201518184015260208101905061026a565b50505050905090810190601f1680156102b25780820380516001836020036101000a031916815260200191505b509250505060405180910390f35b3480156102cc57600080fd5b50610327600480360381019080803590602001908201803590602001908080601f01602080910402602001604051908101604052809392919081815260200183838082843782019150505050505091929192905050506113a5565b005b34801561033557600080fd5b5061033e6115b3565b6040518080602001828103825283818151815260200191508051906020019080838360005b8381101561037e578082015181840152602081019050610363565b50505050905090810190601f1680156103ab5780820380516001836020036101000a031916815260200191505b509250505060405180910390f35b3480156103c557600080fd5b506103ce6116b6565b60405180806020018360ff1660ff168152602001828103825284818151815260200191508051906020019080838360005b8381101561041a5780820151818401526020810190506103ff565b50505050905090810190601f1680156104475780820380516001836020036101000a031916815260200191505b50935050505060405180910390f35b34801561046257600080fd5b5061046b61189e565b604051808260ff1660ff16815260200191505060405180910390f35b34801561049357600080fd5b5061049c6119e3565b604051808260ff1660ff16815260200191505060405180910390f35b3480156104c457600080fd5b506105f1600480360381019080803590602001908201803590602001908080601f0160208091040260200160405190810160405280939291908181526020018383808284378201915050505050509192919290803590602001908201803590602001908080601f0160208091040260200160405190810160405280939291908181526020018383808284378201915050505050509192919290803590602001908201803590602001908080601f0160208091040260200160405190810160405280939291908181526020018383808284378201915050505050509192919290803590602001908201803590602001908080601f01602080910402602001604051908101604052809392919081815260200183838082843782019150505050505091929192905050506119f9565b005b3480156105ff57600080fd5b5061065a600480360381019080803590602001908201803590602001908080601f0160208091040260200160405190810160405280939291908181526020018383808284378201915050505050509192919290505050611e72565b005b34801561066857600080fd5b5061068a600480360381019080803560ff1690602001909291905050506120ae565b6040518080602001828103825283818151815260200191508051906020019080838360005b838110156106ca5780820151818401526020810190506106af565b50505050905090810190601f1680156106f75780820380516001836020036101000a031916815260200191505b509250505060405180910390f35b34801561071157600080fd5b5061071a612299565b604051808273ffffffffffffffffffffffffffffffffffffffff1673ffffffffffffffffffffffffffffffffffffffff16815260200191505060405180910390f35b34801561076857600080fd5b506107716122be565b604051808360ff1660ff16815260200180602001828103825283818151815260200191508051906020019080838360005b838110156107bd5780820151818401526020810190506107a2565b50505050905090810190601f1680156107ea5780820380516001836020036101000a031916815260200191505b50935050505060405180910390f35b34801561080557600080fd5b506108a6600480360381019080803590602001908201803590602001908080601f0160208091040260200160405190810160405280939291908181526020018383808284378201915050505050509192919290803590602001908201803590602001908080601f0160208091040260200160405190810160405280939291908181526020018383808284378201915050505050509192919290505050612511565b604051808215151515815260200191505060405180910390f35b3480156108cc57600080fd5b5061096d600480360381019080803590602001908201803590602001908080601f0160208091040260200160405190810160405280939291908181526020018383808284378201915050505050509192919290803590602001908201803590602001908080601f01602080910402602001604051908101604052809392919081815260200183838082843782019150505050505091929192905050506126d7565b005b34801561097b57600080fd5b5061099d600480360381019080803560ff169060200190929190505050612a2b565b6040518080602001828103825283818151815260200191508051906020019080838360005b838110156109dd5780820151818401526020810190506109c2565b50505050905090810190601f168015610a0a5780820380516001836020036101000a031916815260200191505b509250505060405180910390f35b348015610a2457600080fd5b50610ac5600480360381019080803590602001908201803590602001908080601f0160208091040260200160405190810160405280939291908181526020018383808284378201915050505050509192919290803590602001908201803590602001908080601f0160208091040260200160405190810160405280939291908181526020018383808284378201915050505050509192919290505050612c16565b005b348015610ad357600080fd5b50610adc612f02565b005b348015610aea57600080fd5b50610af3613052565b6040518080602001806020018060200180602001858103855289818151815260200191508051906020019080838360005b83811015610b3f578082015181840152602081019050610b24565b50505050905090810190601f168015610b6c5780820380516001836020036101000a031916815260200191505b50858103845288818151815260200191508051906020019080838360005b83811015610ba5578082015181840152602081019050610b8a565b50505050905090810190601f168015610bd25780820380516001836020036101000a031916815260200191505b50858103835287818151815260200191508051906020019080838360005b83811015610c0b578082015181840152602081019050610bf0565b50505050905090810190601f168015610c385780820380516001836020036101000a031916815260200191505b50858103825286818151815260200191508051906020019080838360005b83811015610c71578082015181840152602081019050610c56565b50505050905090810190601f168015610c9e5780820380516001836020036101000a031916815260200191505b509850505050505050505060405180910390f35b348015610cbe57600080fd5b50610d19600480360381019080803590602001908201803590602001908080601f016020809104026020016040519081016040528093929190818152602001838380828437820191505050505050919291929050505061350d565b005b348015610d2757600080fd5b50610d306137dd565b604051808260ff1660ff16815260200191505060405180910390f35b348015610d5857600080fd5b50610e3f600480360381019080803590602001908201803590602001908080601f0160208091040260200160405190810160405280939291908181526020018383808284378201915050505050509192919290803590602001908201803590602001908080601f0160208091040260200160405190810160405280939291908181526020018383808284378201915050505050509192919290803590602001908201803590602001908080601f0160208091040260200160405190810160405280939291908181526020018383808284378201915050505050509192919290505050613922565b005b60606000809054906101000a900473ffffffffffffffffffffffffffffffffffffffff168073ffffffffffffffffffffffffffffffffffffffff163373ffffffffffffffffffffffffffffffffffffffff16141515610f08576040517f08c379a00000000000000000000000000000000000000000000000000000000081526004018080602001828103825260168152602001807f53656e646572206e6f7420617574686f72697a65642e0000000000000000000081525060200191505060405180910390fd5b610f106115b3565b9150610f2c826020604051908101604052806000815250612511565b151515610fc7576040517f08c379a00000000000000000000000000000000000000000000000000000000081526004018080602001828103825260368152602001807f4163636f756e7420666f722063757272656e74206f776e6572206c6f6767656481526020017f20696e20636f756c64206e6f7420626520666f756e640000000000000000000081525060400191505060405180910390fd5b610fe1856020604051908101604052806000815250612511565b151561106b57846002836040518082805190602001908083835b6020831015156110205780518252602082019150602081019050602083039250610ffb565b6001836020036101000a03801982511681845116808217855250505050505090500191505090815260200160405180910390206000019080519060200190611069929190613cfa565b505b611085846020604051908101604052806000815250612511565b151561110f57836002836040518082805190602001908083835b6020831015156110c4578051825260208201915060208101905060208303925061109f565b6001836020036101000a0380198251168184511680821785525050505050509050019150509081526020016040518091039020600201908051906020019061110d929190613cfa565b505b611129836020604051908101604052806000815250612511565b15156111b357826002836040518082805190602001908083835b6020831015156111685780518252602082019150602081019050602083039250611143565b6001836020036101000a038019825116818451168082178552505050505050905001915050908152602001604051809103902060030190805190602001906111b1929190613cfa565b505b5050505050565b6060806111c56115b3565b90506111e1816020604051908101604052806000815250612511565b15151561127c576040517f08c379a00000000000000000000000000000000000000000000000000000000081526004018080602001828103825260368152602001807f4163636f756e7420666f722063757272656e74206f776e6572206c6f6767656481526020017f20696e20636f756c64206e6f7420626520666f756e640000000000000000000081525060400191505060405180910390fd5b6003816040518082805190602001908083835b6020831015156112b4578051825260208201915060208101905060208303925061128f565b6001836020036101000a03801982511681845116808217855250505050505090500191505090815260200160405180910390206000018360ff168154811015156112fa57fe5b906000526020600020018054600181600116156101000203166002900480601f0160208091040260200160405190810160405280929190818152602001828054600181600116156101000203166002900480156113985780601f1061136d57610100808354040283529160200191611398565b820191906000526020600020905b81548152906001019060200180831161137b57829003601f168201915b5050505050915050919050565b60606000809054906101000a900473ffffffffffffffffffffffffffffffffffffffff168073ffffffffffffffffffffffffffffffffffffffff163373ffffffffffffffffffffffffffffffffffffffff1614151561146c576040517f08c379a00000000000000000000000000000000000000000000000000000000081526004018080602001828103825260168152602001807f53656e646572206e6f7420617574686f72697a65642e0000000000000000000081525060200191505060405180910390fd5b6114746115b3565b9150611490826020604051908101604052806000815250612511565b15151561152b576040517f08c379a00000000000000000000000000000000000000000000000000000000081526004018080602001828103825260368152602001807f4163636f756e7420666f722063757272656e74206f776e6572206c6f6767656481526020017f20696e20636f756c64206e6f7420626520666f756e640000000000000000000081525060400191505060405180910390fd5b826006836040518082805190602001908083835b602083101515611564578051825260208201915060208101905060208303925061153f565b6001836020036101000a038019825116818451168082178552505050505050905001915050908152602001604051809103902060000190805190602001906115ad929190613cfa565b50505050565b6060600160008060009054906101000a900473ffffffffffffffffffffffffffffffffffffffff1673ffffffffffffffffffffffffffffffffffffffff1673ffffffffffffffffffffffffffffffffffffffff1681526020019081526020016000206000018054600181600116156101000203166002900480601f0160208091040260200160405190810160405280929190818152602001828054600181600116156101000203166002900480156116ac5780601f10611681576101008083540402835291602001916116ac565b820191906000526020600020905b81548152906001019060200180831161168f57829003601f168201915b5050505050905090565b6060600060606116c46115b3565b90506116e0816020604051908101604052806000815250612511565b15151561177b576040517f08c379a00000000000000000000000000000000000000000000000000000000081526004018080602001828103825260368152602001807f4163636f756e7420666f722063757272656e74206f776e6572206c6f6767656481526020017f20696e20636f756c64206e6f7420626520666f756e640000000000000000000081525060400191505060405180910390fd5b6006816040518082805190602001908083835b6020831015156117b3578051825260208201915060208101905060208303925061178e565b6001836020036101000a0380198251168184511680821785525050505050509050019150509081526020016040518091039020600001600060159054906101000a900460ff16818054600181600116156101000203166002900480601f01602080910402602001604051908101604052809291908181526020018280546001816001161561010002031660029004801561188e5780601f106118635761010080835404028352916020019161188e565b820191906000526020600020905b81548152906001019060200180831161187157829003601f168201915b5050505050915092509250509091565b600060606118aa6115b3565b90506118c6816020604051908101604052806000815250612511565b151515611961576040517f08c379a00000000000000000000000000000000000000000000000000000000081526004018080602001828103825260368152602001807f4163636f756e7420666f722063757272656e74206f776e6572206c6f6767656481526020017f20696e20636f756c64206e6f7420626520666f756e640000000000000000000081525060400191505060405180910390fd5b6003816040518082805190602001908083835b6020831015156119995780518252602082019150602081019050602083039250611974565b6001836020036101000a038019825116818451168082178552505050505050905001915050908152602001604051809103902060010160009054906101000a900460ff1691505090565b60008060149054906101000a900460ff16905090565b6000809054906101000a900473ffffffffffffffffffffffffffffffffffffffff168073ffffffffffffffffffffffffffffffffffffffff163373ffffffffffffffffffffffffffffffffffffffff16141515611abe576040517f08c379a00000000000000000000000000000000000000000000000000000000081526004018080602001828103825260168152602001807f53656e646572206e6f7420617574686f72697a65642e0000000000000000000081525060200191505060405180910390fd5b600015156002866040518082805190602001908083835b602083101515611afa5780518252602082019150602081019050602083039250611ad5565b6001836020036101000a038019825116818451168082178552505050505050905001915050908152602001604051809103902060040160009054906101000a900460ff161515141515611bb5576040517f08c379a00000000000000000000000000000000000000000000000000000000081526004018080602001828103825260168152602001807f4163636f756e7420616c7265616479206578697374730000000000000000000081525060200191505060405180910390fd5b836002866040518082805190602001908083835b602083101515611bee5780518252602082019150602081019050602083039250611bc9565b6001836020036101000a03801982511681845116808217855250505050505090500191505090815260200160405180910390206000019080519060200190611c37929190613cfa565b50816002866040518082805190602001908083835b602083101515611c715780518252602082019150602081019050602083039250611c4c565b6001836020036101000a03801982511681845116808217855250505050505090500191505090815260200160405180910390206002019080519060200190611cba929190613cfa565b50826002866040518082805190602001908083835b602083101515611cf45780518252602082019150602081019050602083039250611ccf565b6001836020036101000a03801982511681845116808217855250505050505090500191505090815260200160405180910390206001019080519060200190611d3d929190613cfa565b5060016002866040518082805190602001908083835b602083101515611d785780518252602082019150602081019050602083039250611d53565b6001836020036101000a038019825116818451168082178552505050505050905001915050908152602001604051809103902060040160006101000a81548160ff02191690831515021790555084600160008060009054906101000a900473ffffffffffffffffffffffffffffffffffffffff1673ffffffffffffffffffffffffffffffffffffffff1673ffffffffffffffffffffffffffffffffffffffff1681526020019081526020016000206000019080519060200190611e3c929190613cfa565b506001600060148282829054906101000a900460ff160192506101000a81548160ff021916908360ff1602179055505050505050565b60606000809054906101000a900473ffffffffffffffffffffffffffffffffffffffff168073ffffffffffffffffffffffffffffffffffffffff163373ffffffffffffffffffffffffffffffffffffffff16141515611f39576040517f08c379a00000000000000000000000000000000000000000000000000000000081526004018080602001828103825260168152602001807f53656e646572206e6f7420617574686f72697a65642e0000000000000000000081525060200191505060405180910390fd5b611f416115b3565b9150611f5d826020604051908101604052806000815250612511565b151515611ff8576040517f08c379a00000000000000000000000000000000000000000000000000000000081526004018080602001828103825260368152602001807f4163636f756e7420666f722063757272656e74206f776e6572206c6f6767656481526020017f20696e20636f756c64206e6f7420626520666f756e640000000000000000000081525060400191505060405180910390fd5b826006836040518082805190602001908083835b602083101515612031578051825260208201915060208101905060208303925061200c565b6001836020036101000a0380198251168184511680821785525050505050509050019150509081526020016040518091039020600001908051906020019061207a929190613cfa565b506001600060158282829054906101000a900460ff160192506101000a81548160ff021916908360ff160217905550505050565b6060806120b96115b3565b90506120d5816020604051908101604052806000815250612511565b151515612170576040517f08c379a00000000000000000000000000000000000000000000000000000000081526004018080602001828103825260368152602001807f4163636f756e7420666f722063757272656e74206f776e6572206c6f6767656481526020017f20696e20636f756c64206e6f7420626520666f756e640000000000000000000081525060400191505060405180910390fd5b6004816040518082805190602001908083835b6020831015156121a85780518252602082019150602081019050602083039250612183565b6001836020036101000a03801982511681845116808217855250505050505090500191505090815260200160405180910390206000018360ff168154811015156121ee57fe5b906000526020600020018054600181600116156101000203166002900480601f01602080910402602001604051908101604052809291908181526020018280546001816001161561010002031660029004801561228c5780601f106122615761010080835404028352916020019161228c565b820191906000526020600020905b81548152906001019060200180831161226f57829003601f168201915b5050505050915050919050565b6000809054906101000a900473ffffffffffffffffffffffffffffffffffffffff1681565b60006060806122cb6115b3565b90506122e7816020604051908101604052806000815250612511565b151515612382576040517f08c379a00000000000000000000000000000000000000000000000000000000081526004018080602001828103825260368152602001807f4163636f756e7420666f722063757272656e74206f776e6572206c6f6767656481526020017f20696e20636f756c64206e6f7420626520666f756e640000000000000000000081525060400191505060405180910390fd5b6004816040518082805190602001908083835b6020831015156123ba5780518252602082019150602081019050602083039250612395565b6001836020036101000a038019825116818451168082178552505050505050905001915050908152602001604051809103902060010160009054906101000a900460ff166004826040518082805190602001908083835b6020831015156124365780518252602082019150602081019050602083039250612411565b6001836020036101000a0380198251168184511680821785525050505050509050019150509081526020016040518091039020600201808054600181600116156101000203166002900480601f0160208091040260200160405190810160405280929190818152602001828054600181600116156101000203166002900480156125015780601f106124d657610100808354040283529160200191612501565b820191906000526020600020905b8154815290600101906020018083116124e457829003601f168201915b5050505050905092509250509091565b60008151835114151561252757600090506126d1565b816040516020018082805190602001908083835b602083101515612560578051825260208201915060208101905060208303925061253b565b6001836020036101000a0380198251168184511680821785525050505050509050019150506040516020818303038152906040526040518082805190602001908083835b6020831015156125c957805182526020820191506020810190506020830392506125a4565b6001836020036101000a038019825116818451168082178552505050505050905001915050604051809103902060001916836040516020018082805190602001908083835b602083101515612633578051825260208201915060208101905060208303925061260e565b6001836020036101000a0380198251168184511680821785525050505050509050019150506040516020818303038152906040526040518082805190602001908083835b60208310151561269c5780518252602082019150602081019050602083039250612677565b6001836020036101000a0380198251168184511680821785525050505050509050019150506040518091039020600019161490505b92915050565b60606000809054906101000a900473ffffffffffffffffffffffffffffffffffffffff168073ffffffffffffffffffffffffffffffffffffffff163373ffffffffffffffffffffffffffffffffffffffff1614151561279e576040517f08c379a00000000000000000000000000000000000000000000000000000000081526004018080602001828103825260168152602001807f53656e646572206e6f7420617574686f72697a65642e0000000000000000000081525060200191505060405180910390fd5b6127a66115b3565b91506127c2826020604051908101604052806000815250612511565b15151561285d576040517f08c379a00000000000000000000000000000000000000000000000000000000081526004018080602001828103825260368152602001807f4163636f756e7420666f722063757272656e74206f776e6572206c6f6767656481526020017f20696e20636f756c64206e6f7420626520666f756e640000000000000000000081525060400191505060405180910390fd5b6005826040518082805190602001908083835b6020831015156128955780518252602082019150602081019050602083039250612870565b6001836020036101000a0380198251168184511680821785525050505050509050019150509081526020016040518091039020600001849080600181540180825580915050906001820390600052602060002001600090919290919091509080519060200190612906929190613cfa565b505060016005836040518082805190602001908083835b602083101515612942578051825260208201915060208101905060208303925061291d565b6001836020036101000a038019825116818451168082178552505050505050905001915050908152602001604051809103902060010160008282829054906101000a900460ff160192506101000a81548160ff021916908360ff160217905550826004836040518082805190602001908083835b6020831015156129db57805182526020820191506020810190506020830392506129b6565b6001836020036101000a03801982511681845116808217855250505050505090500191505090815260200160405180910390206002019080519060200190612a24929190613cfa565b5050505050565b606080612a366115b3565b9050612a52816020604051908101604052806000815250612511565b151515612aed576040517f08c379a00000000000000000000000000000000000000000000000000000000081526004018080602001828103825260368152602001807f4163636f756e7420666f722063757272656e74206f776e6572206c6f6767656481526020017f20696e20636f756c64206e6f7420626520666f756e640000000000000000000081525060400191505060405180910390fd5b6005816040518082805190602001908083835b602083101515612b255780518252602082019150602081019050602083039250612b00565b6001836020036101000a03801982511681845116808217855250505050505090500191505090815260200160405180910390206000018360ff16815481101515612b6b57fe5b906000526020600020018054600181600116156101000203166002900480601f016020809104026020016040519081016040528092919081815260200182805460018160011615610100020316600290048015612c095780601f10612bde57610100808354040283529160200191612c09565b820191906000526020600020905b815481529060010190602001808311612bec57829003601f168201915b5050505050915050919050565b6000809054906101000a900473ffffffffffffffffffffffffffffffffffffffff168073ffffffffffffffffffffffffffffffffffffffff163373ffffffffffffffffffffffffffffffffffffffff16141515612cdb576040517f08c379a00000000000000000000000000000000000000000000000000000000081526004018080602001828103825260168152602001807f53656e646572206e6f7420617574686f72697a65642e0000000000000000000081525060200191505060405180910390fd5b612deb6002846040518082805190602001908083835b602083101515612d165780518252602082019150602081019050602083039250612cf1565b6001836020036101000a03801982511681845116808217855250505050505090500191505090815260200160405180910390206001018054600181600116156101000203166002900480601f016020809104026020016040519081016040528092919081815260200182805460018160011615610100020316600290048015612de05780601f10612db557610100808354040283529160200191612de0565b820191906000526020600020905b815481529060010190602001808311612dc357829003601f168201915b505050505083612511565b1515612e85576040517f08c379a00000000000000000000000000000000000000000000000000000000081526004018080602001828103825260298152602001807f4c6f67696e20496e666f20697320696e636f72726563742e20506c656173652081526020017f54727920616761696e000000000000000000000000000000000000000000000081525060400191505060405180910390fd5b82600160008060009054906101000a900473ffffffffffffffffffffffffffffffffffffffff1673ffffffffffffffffffffffffffffffffffffffff1673ffffffffffffffffffffffffffffffffffffffff1681526020019081526020016000206000019080519060200190612efc929190613cfa565b50505050565b6000809054906101000a900473ffffffffffffffffffffffffffffffffffffffff168073ffffffffffffffffffffffffffffffffffffffff163373ffffffffffffffffffffffffffffffffffffffff16141515612fc7576040517f08c379a00000000000000000000000000000000000000000000000000000000081526004018080602001828103825260168152602001807f53656e646572206e6f7420617574686f72697a65642e0000000000000000000081525060200191505060405180910390fd5b6020604051908101604052806000815250600160008060009054906101000a900473ffffffffffffffffffffffffffffffffffffffff1673ffffffffffffffffffffffffffffffffffffffff1673ffffffffffffffffffffffffffffffffffffffff168152602001908152602001600020600001908051906020019061304e929190613cfa565b5050565b60608060608060606130626115b3565b905061307e816020604051908101604052806000815250612511565b15156134b9576002816040518082805190602001908083835b6020831015156130bc5780518252602082019150602081019050602083039250613097565b6001836020036101000a03801982511681845116808217855250505050505090500191505090815260200160405180910390206000016002826040518082805190602001908083835b60208310151561312a5780518252602082019150602081019050602083039250613105565b6001836020036101000a03801982511681845116808217855250505050505090500191505090815260200160405180910390206002016002836040518082805190602001908083835b6020831015156131985780518252602082019150602081019050602083039250613173565b6001836020036101000a03801982511681845116808217855250505050505090500191505090815260200160405180910390206003016002846040518082805190602001908083835b60208310151561320657805182526020820191506020810190506020830392506131e1565b6001836020036101000a0380198251168184511680821785525050505050509050019150509081526020016040518091039020600101838054600181600116156101000203166002900480601f0160208091040260200160405190810160405280929190818152602001828054600181600116156101000203166002900480156132d15780601f106132a6576101008083540402835291602001916132d1565b820191906000526020600020905b8154815290600101906020018083116132b457829003601f168201915b50505050509350828054600181600116156101000203166002900480601f01602080910402602001604051908101604052809291908181526020018280546001816001161561010002031660029004801561336d5780601f106133425761010080835404028352916020019161336d565b820191906000526020600020905b81548152906001019060200180831161335057829003601f168201915b50505050509250818054600181600116156101000203166002900480601f0160208091040260200160405190810160405280929190818152602001828054600181600116156101000203166002900480156134095780601f106133de57610100808354040283529160200191613409565b820191906000526020600020905b8154815290600101906020018083116133ec57829003601f168201915b50505050509150808054600181600116156101000203166002900480601f0160208091040260200160405190810160405280929190818152602001828054600181600116156101000203166002900480156134a55780601f1061347a576101008083540402835291602001916134a5565b820191906000526020600020905b81548152906001019060200180831161348857829003601f168201915b505050505090509450945094509450613506565b602060405190810160405280600081525060206040519081016040528060008152506020604051908101604052806000815250602060405190810160405280600081525094509450945094505b5090919293565b60606000809054906101000a900473ffffffffffffffffffffffffffffffffffffffff168073ffffffffffffffffffffffffffffffffffffffff163373ffffffffffffffffffffffffffffffffffffffff161415156135d4576040517f08c379a00000000000000000000000000000000000000000000000000000000081526004018080602001828103825260168152602001807f53656e646572206e6f7420617574686f72697a65642e0000000000000000000081525060200191505060405180910390fd5b6135dc6115b3565b91506135f8826020604051908101604052806000815250612511565b151515613693576040517f08c379a00000000000000000000000000000000000000000000000000000000081526004018080602001828103825260368152602001807f4163636f756e7420666f722063757272656e74206f776e6572206c6f6767656481526020017f20696e20636f756c64206e6f7420626520666f756e640000000000000000000081525060400191505060405180910390fd5b6003826040518082805190602001908083835b6020831015156136cb57805182526020820191506020810190506020830392506136a6565b6001836020036101000a038019825116818451168082178552505050505050905001915050908152602001604051809103902060000183908060018154018082558091505090600182039060005260206000200160009091929091909150908051906020019061373c929190613cfa565b505060016003836040518082805190602001908083835b6020831015156137785780518252602082019150602081019050602083039250613753565b6001836020036101000a038019825116818451168082178552505050505050905001915050908152602001604051809103902060010160008282829054906101000a900460ff160192506101000a81548160ff021916908360ff160217905550505050565b600060606137e96115b3565b9050613805816020604051908101604052806000815250612511565b1515156138a0576040517f08c379a00000000000000000000000000000000000000000000000000000000081526004018080602001828103825260368152602001807f4163636f756e7420666f722063757272656e74206f776e6572206c6f6767656481526020017f20696e20636f756c64206e6f7420626520666f756e640000000000000000000081525060400191505060405180910390fd5b6005816040518082805190602001908083835b6020831015156138d857805182526020820191506020810190506020830392506138b3565b6001836020036101000a038019825116818451168082178552505050505050905001915050908152602001604051809103902060010160009054906101000a900460ff1691505090565b60606000809054906101000a900473ffffffffffffffffffffffffffffffffffffffff168073ffffffffffffffffffffffffffffffffffffffff163373ffffffffffffffffffffffffffffffffffffffff161415156139e9576040517f08c379a00000000000000000000000000000000000000000000000000000000081526004018080602001828103825260168152602001807f53656e646572206e6f7420617574686f72697a65642e0000000000000000000081525060200191505060405180910390fd5b6139f16115b3565b9150613a0d826020604051908101604052806000815250612511565b151515613aa8576040517f08c379a00000000000000000000000000000000000000000000000000000000081526004018080602001828103825260368152602001807f4163636f756e7420666f722063757272656e74206f776e6572206c6f6767656481526020017f20696e20636f756c64206e6f7420626520666f756e640000000000000000000081525060400191505060405180910390fd5b6004826040518082805190602001908083835b602083101515613ae05780518252602082019150602081019050602083039250613abb565b6001836020036101000a0380198251168184511680821785525050505050509050019150509081526020016040518091039020600001859080600181540180825580915050906001820390600052602060002001600090919290919091509080519060200190613b51929190613cfa565b505060016004836040518082805190602001908083835b602083101515613b8d5780518252602082019150602081019050602083039250613b68565b6001836020036101000a038019825116818451168082178552505050505050905001915050908152602001604051809103902060010160008282829054906101000a900460ff160192506101000a81548160ff021916908360ff160217905550836004836040518082805190602001908083835b602083101515613c265780518252602082019150602081019050602083039250613c01565b6001836020036101000a03801982511681845116808217855250505050505090500191505090815260200160405180910390206002019080519060200190613c6f929190613cfa565b50826006836040518082805190602001908083835b602083101515613ca95780518252602082019150602081019050602083039250613c84565b6001836020036101000a03801982511681845116808217855250505050505090500191505090815260200160405180910390206000019080519060200190613cf2929190613cfa565b505050505050565b828054600181600116156101000203166002900490600052602060002090601f016020900481019282601f10613d3b57805160ff1916838001178555613d69565b82800160010185558215613d69579182015b82811115613d68578251825591602001919060010190613d4d565b5b509050613d769190613d7a565b5090565b613d9c91905b80821115613d98576000816000905550600101613d80565b5090565b905600a165627a7a7230582099763bde0dc43b412acf6b78197d494146f6bcd6f09a79a03d1d20ff4851f6620029",
  "source": "pragma solidity ^0.4.24;\r\n\r\ncontract DMV{\r\n\r\n\t//Store current user address when page was loaded\r\n    address public owner;\r\n    \r\n    constructor() public{\r\n        owner = msg.sender;\r\n    }\r\n    \r\n\t//Check if current address from METAMASK is the owner (address when page was loaded)\r\n    modifier onlyBy(address _account)\r\n    {\r\n        require(msg.sender == _account, \"Sender not authorized.\");\r\n        // Do not forget the \"_;\"! It will\r\n        // be replaced by the actual function\r\n        // body when the modifier is used.\r\n        _;\r\n    }\r\n    \r\n\t//Defined Structs\r\n    struct AccountStruct{\r\n       string userInfo;\r\n       string loginHashCheck;\r\n\t   string testGrades;\r\n\t   string realID;\r\n\t   bool isCreated;\r\n    }\r\n\t\r\n\tuint8 numberofAccounts;\r\n\tuint8 carTitleCount;\r\n    \r\n    struct LoginStruct{\r\n       string driverLicense;\r\n    }\r\n\t\r\n\tstruct VitalRecordRequestStruct{\r\n       string[] requestInfo;\r\n\t   uint8 requestCount;\r\n    }\r\n\t\r\n\tstruct SoldVehicleReceiptStruct{\r\n       string[] soldVehicleInfo;\r\n\t   uint8 soldVehicleCount;\r\n\t   string soldVehicleCarTitles;\r\n    }\r\n\t\r\n\tstruct ReportVehicleStruct{\r\n       string[] reportVehicleInfo;\r\n\t   uint8 reportVehicleCount;\r\n    }\r\n\t\r\n\tstruct CarTitleStruct{\r\n       string fullCarTitleInformation;\r\n    }\r\n\t\r\n    //Defined mappings\r\n    mapping(address => LoginStruct) activeLogins;\r\n    mapping(string => AccountStruct) allAccounts;\r\n\tmapping(string => VitalRecordRequestStruct) allVitalRecordRequests;\r\n\tmapping(string => SoldVehicleReceiptStruct) allSoldVehicleReceipts;\r\n\tmapping(string => ReportVehicleStruct) allReportedVehicles;\r\n\tmapping(string => CarTitleStruct) allCarTitles;\r\n\t\r\n    //Create an account for current user address with their driver license as a key to lookup their information\r\n    function createAccount(string memory _driverLicense,string memory _userInfo,string memory _loginHashCheck, string memory _testGrades) public onlyBy(owner){\r\n\t   \r\n\t    require(\r\n            allAccounts[_driverLicense].isCreated == false,\r\n            \"Account already exists\"\r\n        );\r\n\t\t\r\n    \tallAccounts[_driverLicense].userInfo = _userInfo;\r\n    \tallAccounts[_driverLicense].testGrades = _testGrades;\r\n    \tallAccounts[_driverLicense].loginHashCheck = _loginHashCheck;\r\n\t\tallAccounts[_driverLicense].isCreated = true;\r\n\t\tactiveLogins[owner].driverLicense = _driverLicense;\r\n\t\tnumberofAccounts+=1;\r\n    }\r\n    \r\n\t//Get user with current address's license account information by getting their logged in license number\r\n    function getAccount() public view returns(string memory,string memory,string memory,string memory)  {\r\n        string memory license = getLogin();\r\n        if(!compareStrings(license, \"\")){\r\n            return (allAccounts[license].userInfo,allAccounts[license].testGrades,allAccounts[license].realID,allAccounts[license].loginHashCheck);\r\n        }\r\n        else{\r\n            return (\"\",\"\",\"\",\"\");\r\n        }\r\n    }\r\n\t\r\n\t//Get Number of accounts\r\n    function getNumberofAccounts() public view returns(uint8)  {\r\n        return numberofAccounts;\r\n    }\r\n\t\r\n\t//Update current address's license account information by getting their logged in license number\r\n\tfunction updateAccount(string memory _userInfo,string memory _testGrades, string memory _realID) public onlyBy(owner){\r\n\t   \r\n\t    string memory license = getLogin();\r\n\t   \r\n\t    require(\r\n            !compareStrings(license, \"\"),\r\n            \"Account for current owner logged in could not be found\"\r\n        );\r\n\t\t\r\n\t\tif(!compareStrings( _userInfo, \"\")){\r\n\t\t\tallAccounts[license].userInfo = _userInfo;\r\n\t\t}\r\n\t\tif(!compareStrings(_testGrades, \"\")){\r\n\t\t\tallAccounts[license].testGrades = _testGrades;\r\n\t\t}\r\n\t\tif(!compareStrings(_realID, \"\")){\r\n\t\t\tallAccounts[license].realID = _realID;\r\n\t\t}\r\n    }\r\n\t\r\n\t\r\n    //Verify login credentials and then set logged in driver license as specified driver license \r\n    function Login(string memory _driverLicense, string memory _loginHashCheck) public onlyBy(owner){\r\n\t\trequire(\r\n            compareStrings(allAccounts[_driverLicense].loginHashCheck, _loginHashCheck),\r\n            \"Login Info is incorrect. Please Try again\"\r\n        );\r\n\t\tactiveLogins[owner].driverLicense = _driverLicense;\r\n    }\r\n    \r\n\t//Get logged in driver license. Used in all functions to get current user credentials\r\n    function getLogin() public view returns(string memory){\r\n    \treturn activeLogins[owner].driverLicense;\r\n    }\r\n    //Set logged in driver license to empty string\r\n    function Logout() public onlyBy(owner){\r\n    \tactiveLogins[owner].driverLicense = \"\";\r\n    }\r\n    \r\n    //Used to compare if string are equal por not\r\n    function compareStrings (string memory a, string memory b) public view returns (bool) {\r\n            if(bytes(a).length != bytes(b).length) {\r\n\t\t\t\treturn false;\r\n\t\t\t} else {\r\n\t\t\t\treturn (keccak256(abi.encodePacked((a))) == keccak256(abi.encodePacked((b))) );\r\n\t\t\t}\r\n\r\n       }\r\n\t  \r\n\t  \r\n\t//Create vital record request with current address's license account information by getting their logged in license number\r\n\tfunction createVitalRecordRequest(string memory _requestInfo) public onlyBy(owner){\r\n\t\r\n\t\tstring memory license = getLogin();\r\n\t   \r\n\t    require(\r\n            !compareStrings(license, \"\"),\r\n            \"Account for current owner logged in could not be found\"\r\n        );\r\n\t\r\n\t\tallVitalRecordRequests[license].requestInfo.push(_requestInfo);\r\n\t\tallVitalRecordRequests[license].requestCount+=1;\r\n\t}\r\n\t\r\n\t//Get vital record request by index with current address's license account information by getting their logged in license number\r\n\tfunction getRecordRequestIndex(uint8 _index) public view returns(string memory)  {\r\n        string memory license = getLogin();\r\n\t\t\r\n\t\trequire(\r\n            !compareStrings(license, \"\"),\r\n            \"Account for current owner logged in could not be found\"\r\n        );\r\n\t\t\r\n        return (allVitalRecordRequests[license].requestInfo[_index]);\r\n    }\r\n\t\r\n\t//Get vital record request count with current address's license account information by getting their logged in license number\r\n\tfunction getRecordRequestCount() public view returns(uint8)  {\r\n        string memory license = getLogin();\r\n\t\t\r\n\t\trequire(\r\n            !compareStrings(license, \"\"),\r\n            \"Account for current owner logged in could not be found\"\r\n        );\r\n\t\t\r\n        return (allVitalRecordRequests[license].requestCount);\r\n    }\r\n\t\r\n\t//Create sold vehicle receipt with current address's license account information by getting their logged in license number\r\n\tfunction createSoldVehicleReceipt(string memory _soldVehicleInfo, string memory _soldVehicleCarTitles,string memory _fullCarTitleInformation) public onlyBy(owner){\r\n\t\r\n\t\tstring memory license = getLogin();\r\n\t   \r\n\t    require(\r\n            !compareStrings(license, \"\"),\r\n            \"Account for current owner logged in could not be found\"\r\n        );\r\n\t\r\n\t\tallSoldVehicleReceipts[license].soldVehicleInfo.push(_soldVehicleInfo);\r\n\t\tallSoldVehicleReceipts[license].soldVehicleCount+=1;\r\n\t\tallSoldVehicleReceipts[license].soldVehicleCarTitles = _soldVehicleCarTitles;\r\n\t\tallCarTitles[license].fullCarTitleInformation = _fullCarTitleInformation;\r\n\t}\r\n\t\r\n\t//Get sold vehicle receipt with current address's license account information by getting their logged in license number\r\n\tfunction getSoldVehicleReceiptIndex(uint8 _index) public view returns(string memory)  {\r\n        string memory license = getLogin();\r\n\t\trequire(\r\n            !compareStrings(license, \"\"),\r\n            \"Account for current owner logged in could not be found\"\r\n        );\r\n        return (allSoldVehicleReceipts[license].soldVehicleInfo[_index]);\r\n    }\r\n\t\r\n\t//Get sold vehicle receipt count with current address's license account information by getting their logged in license number\r\n\tfunction getSoldVehicleReceiptCountAndCarTitles() public view returns(uint8,string memory)  {\r\n        string memory license = getLogin();\r\n\t\trequire(\r\n            !compareStrings(license, \"\"),\r\n            \"Account for current owner logged in could not be found\"\r\n        );\r\n        return (allSoldVehicleReceipts[license].soldVehicleCount,allSoldVehicleReceipts[license].soldVehicleCarTitles);\r\n    }\r\n\t\r\n\t//Create reported vehicle with current address's license account information by getting their logged in license number\r\n\tfunction createReportedVehicle(string memory _reportVehicleInfo,string memory _soldVehicleCarTitles) public onlyBy(owner){\r\n\t\r\n\t\tstring memory license = getLogin();\r\n\t   \r\n\t    require(\r\n            !compareStrings(license, \"\"),\r\n            \"Account for current owner logged in could not be found\"\r\n        );\r\n\t\r\n\t\tallReportedVehicles[license].reportVehicleInfo.push(_reportVehicleInfo);\r\n\t\tallReportedVehicles[license].reportVehicleCount+=1;\r\n\t\tallSoldVehicleReceipts[license].soldVehicleCarTitles = _soldVehicleCarTitles;\r\n\t}\r\n\t\r\n\t//Get reported vehicle by index with current address's license account information by getting their logged in license number\r\n\tfunction getReportedVehicleIndex(uint8 _index) public view returns(string memory)  {\r\n        string memory license = getLogin();\r\n\t\t\r\n\t\trequire(\r\n            !compareStrings(license, \"\"),\r\n            \"Account for current owner logged in could not be found\"\r\n        );\r\n\t\t\r\n        return allReportedVehicles[license].reportVehicleInfo[_index];\r\n    }\r\n\t\r\n\t//Get reported vehicle count with current address's license account information by getting their logged in license number\r\n\tfunction getReportedVehicleCount() public view returns(uint8)  {\r\n        string memory license = getLogin();\r\n\t\t\r\n\t\trequire(\r\n            !compareStrings(license, \"\"),\r\n            \"Account for current owner logged in could not be found\"\r\n        );\r\n\t\t\r\n        return allReportedVehicles[license].reportVehicleCount;\r\n    }\r\n\t\r\n\t//Create car title with current address's license account information by getting their logged in license number\r\n\tfunction createCarTitleInformation(string memory _fullCarTitleInformation) public onlyBy(owner){\r\n\t\r\n\t\tstring memory license = getLogin();\r\n\t   \r\n\t    require(\r\n            !compareStrings(license, \"\"),\r\n            \"Account for current owner logged in could not be found\"\r\n        );\r\n\t\t\r\n\t\tallCarTitles[license].fullCarTitleInformation = _fullCarTitleInformation;\r\n\t\tcarTitleCount += 1;\r\n\t}\r\n\t\r\n\t//Update car title with current address's license account information by getting their logged in license number\r\n\tfunction updateCarTitleInformation(string memory _fullCarTitleInformation) public onlyBy(owner){\r\n\t\r\n\t\tstring memory license = getLogin();\r\n\t   \r\n\t    require(\r\n            !compareStrings(license, \"\"),\r\n            \"Account for current owner logged in could not be found\"\r\n        );\r\n\t\t\r\n\t\tallCarTitles[license].fullCarTitleInformation = _fullCarTitleInformation;\r\n\t}\r\n\t\r\n\t//Get car title with current address's license account information by getting their logged in license number\r\n\tfunction getCarTitleInformation() public view returns(string memory,uint8){\r\n\t\r\n\t\tstring memory license = getLogin();\r\n\t   \r\n\t    require(\r\n            !compareStrings(license, \"\"),\r\n            \"Account for current owner logged in could not be found\"\r\n        );\r\n\t\t\r\n\t\treturn (allCarTitles[license].fullCarTitleInformation,carTitleCount);\r\n\t}\r\n\r\n}\r\n",
  "sourcePath": "C:\\Users\\CJ1996\\Documents\\Libraries\\Documents\\Old Dominion University\\Spring 2020\\CS 764\\Project\\contracts\\DMV.sol",
  "compiler": {
    "name": "solc",
    "version": "0.4.24+commit.e67f0147.Emscripten.clang"
  },
  "schemaVersion": "3.0.23",
  "updatedAt": "2020-04-18T18:27:48.442Z",
  "networkType": "ethereum",
  "devdoc": {
    "methods": {}
  },
  "userdoc": {
    "methods": {}
  }
}