{
  "contractName": "Post",
  "abi": [
    {
      "constant": true,
      "inputs": [],
      "name": "owner",
      "outputs": [
        {
          "name": "",
          "type": "address"
        }
      ],
      "payable": false,
      "stateMutability": "view",
      "type": "function"
    },
    {
      "inputs": [],
      "payable": false,
      "stateMutability": "nonpayable",
      "type": "constructor"
    },
    {
      "constant": false,
      "inputs": [
        {
          "name": "tag",
          "type": "bytes32"
        }
      ],
      "name": "addTags",
      "outputs": [],
      "payable": false,
      "stateMutability": "nonpayable",
      "type": "function"
    },
    {
      "constant": false,
      "inputs": [
        {
          "name": "adrs",
          "type": "address"
        },
        {
          "name": "tag",
          "type": "bytes32"
        }
      ],
      "name": "addTagsToAdmins",
      "outputs": [],
      "payable": false,
      "stateMutability": "nonpayable",
      "type": "function"
    },
    {
      "constant": true,
      "inputs": [],
      "name": "getTags",
      "outputs": [
        {
          "name": "",
          "type": "bytes32[]"
        }
      ],
      "payable": false,
      "stateMutability": "view",
      "type": "function"
    },
    {
      "constant": false,
      "inputs": [
        {
          "name": "tag",
          "type": "bytes32"
        },
        {
          "name": "post",
          "type": "string"
        }
      ],
      "name": "addUserPost",
      "outputs": [
        {
          "name": "success",
          "type": "bool"
        }
      ],
      "payable": false,
      "stateMutability": "nonpayable",
      "type": "function"
    },
    {
      "constant": true,
      "inputs": [],
      "name": "postCount",
      "outputs": [
        {
          "name": "",
          "type": "uint8"
        }
      ],
      "payable": false,
      "stateMutability": "view",
      "type": "function"
    },
    {
      "constant": true,
      "inputs": [
        {
          "name": "index",
          "type": "uint8"
        }
      ],
      "name": "readPostByIndex",
      "outputs": [
        {
          "name": "",
          "type": "bytes32"
        },
        {
          "name": "",
          "type": "string"
        },
        {
          "name": "",
          "type": "address"
        },
        {
          "name": "",
          "type": "address[]"
        },
        {
          "name": "",
          "type": "uint8"
        }
      ],
      "payable": false,
      "stateMutability": "view",
      "type": "function"
    },
    {
      "constant": false,
      "inputs": [
        {
          "name": "index",
          "type": "uint8"
        }
      ],
      "name": "voteByAdmin",
      "outputs": [
        {
          "name": "success",
          "type": "bool"
        }
      ],
      "payable": false,
      "stateMutability": "nonpayable",
      "type": "function"
    },
    {
      "constant": true,
      "inputs": [
        {
          "name": "adrs",
          "type": "address"
        }
      ],
      "name": "getTagsOfAdmin",
      "outputs": [
        {
          "name": "",
          "type": "bytes32[]"
        }
      ],
      "payable": false,
      "stateMutability": "view",
      "type": "function"
    }
  ],
  "bytecode": "0x608060405234801561001057600080fd5b50336000806101000a81548173ffffffffffffffffffffffffffffffffffffffff021916908373ffffffffffffffffffffffffffffffffffffffff160217905550610e60806100606000396000f300608060405260043610610099576000357c0100000000000000000000000000000000000000000000000000000000900463ffffffff168063037cd32d1461009e57806317906c2e146100cf5780631e99f7b3146101005780632fca2b7714610240578063329aee52146102d85780636136d286146103675780638da5cb5b146103af578063995d9ab714610406578063fd81c92514610472575b600080fd5b3480156100aa57600080fd5b506100cd60048036038101908080356000191690602001909291905050506104c3565b005b3480156100db57600080fd5b506100e46105be565b604051808260ff1660ff16815260200191505060405180910390f35b34801561010c57600080fd5b5061012e600480360381019080803560ff1690602001909291905050506105d5565b604051808660001916600019168152602001806020018573ffffffffffffffffffffffffffffffffffffffff1673ffffffffffffffffffffffffffffffffffffffff168152602001806020018460ff1660ff168152602001838103835287818151815260200191508051906020019080838360005b838110156101be5780820151818401526020810190506101a3565b50505050905090810190601f1680156101eb5780820380516001836020036101000a031916815260200191505b50838103825285818151815260200191508051906020019060200280838360005b8381101561022757808201518184015260208101905061020c565b5050505090500197505050505050505060405180910390f35b34801561024c57600080fd5b50610281600480360381019080803573ffffffffffffffffffffffffffffffffffffffff1690602001909291905050506107d2565b6040518080602001828103825283818151815260200191508051906020019060200280838360005b838110156102c45780820151818401526020810190506102a9565b505050509050019250505060405180910390f35b3480156102e457600080fd5b5061034d6004803603810190808035600019169060200190929190803590602001908201803590602001908080601f0160208091040260200160405190810160405280939291908181526020018383808284378201915050505050509192919290505050610870565b604051808215151515815260200191505060405180910390f35b34801561037357600080fd5b50610395600480360381019080803560ff1690602001909291905050506109e6565b604051808215151515815260200191505060405180910390f35b3480156103bb57600080fd5b506103c4610ab9565b604051808273ffffffffffffffffffffffffffffffffffffffff1673ffffffffffffffffffffffffffffffffffffffff16815260200191505060405180910390f35b34801561041257600080fd5b5061041b610ade565b6040518080602001828103825283818151815260200191508051906020019060200280838360005b8381101561045e578082015181840152602081019050610443565b505050509050019250505060405180910390f35b34801561047e57600080fd5b506104c1600480360381019080803573ffffffffffffffffffffffffffffffffffffffff1690602001909291908035600019169060200190929190505050610b3a565b005b6000809054906101000a900473ffffffffffffffffffffffffffffffffffffffff168073ffffffffffffffffffffffffffffffffffffffff163373ffffffffffffffffffffffffffffffffffffffff16141515610588576040517f08c379a00000000000000000000000000000000000000000000000000000000081526004018080602001828103825260168152602001807f53656e646572206e6f7420617574686f72697a65642e0000000000000000000081525060200191505060405180910390fd5b60018290806001815401808255809150509060018203906000526020600020016000909192909190915090600019169055505050565b6000600460009054906101000a900460ff16905090565b60006060600060606000600360008760ff1660ff16815260200190815260200160002060000154600360008860ff1660ff168152602001908152602001600020600101600360008960ff1660ff16815260200190815260200160002060020160009054906101000a900473ffffffffffffffffffffffffffffffffffffffff16600360008a60ff1660ff168152602001908152602001600020600301600360008b60ff1660ff16815260200190815260200160002060040160009054906101000a900460ff16838054600181600116156101000203166002900480601f0160208091040260200160405190810160405280929190818152602001828054600181600116156101000203166002900480156107305780601f1061070557610100808354040283529160200191610730565b820191906000526020600020905b81548152906001019060200180831161071357829003601f168201915b50505050509350818054806020026020016040519081016040528092919081815260200182805480156107b857602002820191906000526020600020905b8160009054906101000a900473ffffffffffffffffffffffffffffffffffffffff1673ffffffffffffffffffffffffffffffffffffffff168152602001906001019080831161076e575b505050505091509450945094509450945091939590929450565b6060600260008373ffffffffffffffffffffffffffffffffffffffff1673ffffffffffffffffffffffffffffffffffffffff16815260200190815260200160002060000180548060200260200160405190810160405280929190818152602001828054801561086457602002820191906000526020600020905b8154600019168152602001906001019080831161084c575b50505050509050919050565b600061087a610c76565b838160000190600019169081600019168152505082816020018190525033816040019073ffffffffffffffffffffffffffffffffffffffff16908173ffffffffffffffffffffffffffffffffffffffff16815250508060036000600460009054906101000a900460ff1660ff1660ff168152602001908152602001600020600082015181600001906000191690556020820151816001019080519060200190610924929190610cc2565b5060408201518160020160006101000a81548173ffffffffffffffffffffffffffffffffffffffff021916908373ffffffffffffffffffffffffffffffffffffffff1602179055506060820151816003019080519060200190610988929190610d42565b5060808201518160040160006101000a81548160ff021916908360ff1602179055509050506001600460008282829054906101000a900460ff160192506101000a81548160ff021916908360ff160217905550600191505092915050565b6000600360008360ff1660ff1681526020019081526020016000206003013390806001815401808255809150509060018203906000526020600020016000909192909190916101000a81548173ffffffffffffffffffffffffffffffffffffffff021916908373ffffffffffffffffffffffffffffffffffffffff160217905550506001600360008460ff1660ff16815260200190815260200160002060040160008282829054906101000a900460ff160192506101000a81548160ff021916908360ff16021790555060019050919050565b6000809054906101000a900473ffffffffffffffffffffffffffffffffffffffff1681565b60606001805480602002602001604051908101604052809291908181526020018280548015610b3057602002820191906000526020600020905b81546000191681526020019060010190808311610b18575b5050505050905090565b6000809054906101000a900473ffffffffffffffffffffffffffffffffffffffff168073ffffffffffffffffffffffffffffffffffffffff163373ffffffffffffffffffffffffffffffffffffffff16141515610bff576040517f08c379a00000000000000000000000000000000000000000000000000000000081526004018080602001828103825260168152602001807f53656e646572206e6f7420617574686f72697a65642e0000000000000000000081525060200191505060405180910390fd5b600260008473ffffffffffffffffffffffffffffffffffffffff1673ffffffffffffffffffffffffffffffffffffffff168152602001908152602001600020600001829080600181540180825580915050906001820390600052602060002001600090919290919091509060001916905550505050565b60a0604051908101604052806000801916815260200160608152602001600073ffffffffffffffffffffffffffffffffffffffff16815260200160608152602001600060ff1681525090565b828054600181600116156101000203166002900490600052602060002090601f016020900481019282601f10610d0357805160ff1916838001178555610d31565b82800160010185558215610d31579182015b82811115610d30578251825591602001919060010190610d15565b5b509050610d3e9190610dcc565b5090565b828054828255906000526020600020908101928215610dbb579160200282015b82811115610dba5782518260006101000a81548173ffffffffffffffffffffffffffffffffffffffff021916908373ffffffffffffffffffffffffffffffffffffffff16021790555091602001919060010190610d62565b5b509050610dc89190610df1565b5090565b610dee91905b80821115610dea576000816000905550600101610dd2565b5090565b90565b610e3191905b80821115610e2d57600081816101000a81549073ffffffffffffffffffffffffffffffffffffffff021916905550600101610df7565b5090565b905600a165627a7a72305820e1ec3bad62961cb6d7a94bdbe04ab006bde835c114777cce9a021613a6a3bf7a0029",
  "source": "pragma solidity ^0.4.23;\r\n\r\ncontract Post{\r\n\r\naddress public owner;\r\n\r\nstruct TagStruct{\r\n   bytes32[] tagged;\r\n}\r\n\r\nstruct PostStruct{\r\n    bytes32 postTag;\r\n    string post;\r\n    address user;\r\n    address[] votedBy;\r\n    uint8 voteCount;\r\n}\r\n\r\nbytes32[] allTags;\r\n\r\nmapping(address => TagStruct) adminTags;\r\n\r\nmapping(uint8 => PostStruct) totalPosts;\r\n\r\nuint8 postid;\r\n\r\nconstructor() public {\r\n       owner = msg.sender;\r\n   }\r\n\r\n modifier onlyBy(address _account)\r\n    {\r\n        require(msg.sender == _account, \"Sender not authorized.\");\r\n        // Do not forget the \"_;\"! It will\r\n        // be replaced by the actual function\r\n        // body when the modifier is used.\r\n        _;\r\n    }\r\n\r\n\r\n\r\n\r\nfunction addTags(bytes32 tag) public onlyBy(owner) {\r\n   allTags.push(tag);\r\n}\r\n\r\nfunction addTagsToAdmins(address adrs,bytes32 tag) public onlyBy(owner) {\r\n   adminTags[adrs].tagged.push(tag);\r\n}\r\n\r\nfunction getTags() public view returns(bytes32[]){\r\n   return allTags;\r\n}\r\n\r\nfunction addUserPost(bytes32 tag,string post) public returns (bool success){\r\n    PostStruct memory postContent;\r\n    postContent.postTag= tag;\r\n    postContent.post=post;\r\n    postContent.user=msg.sender;\r\n    totalPosts[postid]=postContent;\r\n    postid+=1;\r\n    return true;\r\n}\r\n\r\nfunction postCount() public view returns(uint8){\r\n    return postid;\r\n}\r\n\r\nfunction readPostByIndex(uint8 index) public view returns(bytes32,string,address,address[],uint8){\r\n    return( totalPosts[index].postTag,totalPosts[index].post,totalPosts[index].user,\r\n    totalPosts[index].votedBy,totalPosts[index].voteCount);\r\n}\r\n\r\nfunction voteByAdmin(uint8 index) public returns(bool success){\r\n    totalPosts[index].votedBy.push(msg.sender);\r\n    totalPosts[index].voteCount+=1;\r\n    return true;\r\n}\r\n\r\nfunction getTagsOfAdmin(address adrs) public view returns(bytes32[]){\r\n   return adminTags[adrs].tagged;\r\n}\r\n\r\n\r\n\r\n\r\n\r\n\r\n}\r\n",
  "sourcePath": "C:\\Users\\CJ1996\\Documents\\Libraries\\Documents\\Old Dominion University\\Spring 2020\\CS 764\\Module 7\\Metamask_Truffle_Guide_v2\\Metamask_Truffle_Guide\\Project\\contracts\\Post.sol",
  "compiler": {
    "name": "solc",
    "version": "0.4.23+commit.124ca40d.Emscripten.clang"
  },
  "schemaVersion": "3.0.23",
  "updatedAt": "2020-03-20T22:34:21.838Z",
  "networkType": "ethereum",
  "devdoc": {
    "methods": {}
  },
  "userdoc": {
    "methods": {}
  }
}